:020000040800F2
:100000006F00004C820410208204102000000000C9
:1000100082041020820410208204102000000000BE
:1000200082041020820410208204102082041020F8
:1000300082041020820410208204102082041020E8
:10004000000000008204102082041020820410208E
:1000500082041020820410208204102082041020C8
:1000600082041020820410208204102082041020B8
:1000700082041020820410208204102082041020A8
:100080008204102082041020820410208204102098
:10040000820410208204102082041020B7070D40BF
:1004100003A747F0B7970F40938747209C43935615
:10042000C7018D8AA9CE93F7071095E3B7F70C4063
:100430001D4723A2E770B7F70C4023A0E77037F7FA
:100440000C40130747701C439D8BFBCE77FEB7F71C
:100450000C40214723A2E770B7F70C4023A0E770B8
:10046000A96793877709FD17FDFFB7070D4003A71D
:1004700047F01317C7491317D74923A2E7F0828023
:10048000828000000000000000000000000000006A
:10049000000000000000000000000000000000005C
:1004A000000000000000000000000000000000004C
:1004B000000000000000000000000000000000003C
:1004C00073700430E16773A00730732540F1137532
:1004D000F50F8145631DB512153F970112189381E1
:1004E000E155174212181302E2D5178112181301B1
:1004F00061B19302002073A0027D1705000013056F
:1005000065B0970510189385E5AF17061018130608
:1005100066F0630CB50063FAC5008322050023A0D2
:10052000550011059105E3EAC5FE97021018938264
:1005300062AD73907230970210189382A2ED73909F
:10054000C27E73E0C07E970200009382A213739074
:1005500052309302F00373B0523073E0513099621D
:1005600073B00230896273A0023073F00232170751
:1005700002001307274B970702009387E74C63722B
:10058000F70208434C4310473107E30AB5FE65DA2A
:100590008322050023A05500110591057D166DFAF3
:1005A000F9BF170702001307E74B9707020093876D
:1005B000E74C637CF7000843504321077DDA232092
:1005C000050011057D1665FEEDB78D2D170502009E
:1005D0001305459EEFF0F114EFF0F115D520EF0073
:1005E000C07F970200009382E25D739052309302C5
:1005F000F00373B0523073E05130A14273A0027D1A
:10060000413501458145EFE05118EF005008730076
:100610005010F5BF9302F00373B0523073E05130C5
:10062000B70202E1A3850200194323806200B712DA
:1006300002E1238002040943238162040543A3806D
:10064000620473005010A380020423800204370563
:1006500080100295C1B713000000130000001300C2
:10066000000013000000130000001300000013003E
:100670000000130000001300000013000000010040
:1006800073005010F5BF00000000000000000000E3
:10069000000000000000000000000000000000005A
:1006A000000000000000000000000000000000004A
:1006B000000000000000000000000000000000003A
:1006C0008280000000000000000000000000000028
:1006D000000000000000000000000000000000001A
:10070000AA872E8563C4F50033E5C70A8280376760
:100710000C405C47BD9B5CC7B7660C409C4A93F796
:10072000F78F9CCAB7670C409047131646491316BB
:10073000564990C750471316C64850C790471316DE
:1007400006491316164990C737660C400C4EE199BE
:100750000CCE904A619A90CA90471376F6EF1376C2
:10076000F6DF90C737660C404C4A93F505E04CCA5B
:10077000904AE575FD156D8E90CA94479396C648CC
:100780009396D64894C79447F99A94C7944793F69A
:10079000F6F894C75C47939747495CC7B7670C4026
:1007A000D853619BD8D3B7670C40D84F419BD8CF63
:1007B00082809D67938737121CCDA1679387A7120C
:1007C0005CCDB167938717EE1CCD5C4993E71700AA
:1007D0005CC982809D67938737121CCDA167938780
:1007E000A7125CCDB167938717EE1CCD5C49F99BCE
:1007F0005CC98280B7670C4098471367074098C769
:100800009847131747291317572998C7B7660C40FD
:10081000D84613670701D8C6D8461317C728D8C6C5
:1008200037670C40104B1366760010CB104B1366E5
:10083000067010CB90471366160090C7904713665A
:10084000060790C790471366063090C79047131667
:10085000C6281316D62890C79047B70503004D8EBB
:1008600090C7DC4693974729DCC61C4B9D66D58F05
:100870001CCBB7670C40D44B93E6F61FD4CBB767BD
:100880000C40944F93E6760094CFB7670C40D44F5A
:1008900093E6F600D4CFB7670C40D45393E67600C6
:1008A000D4D31C4BCD8F1CCB8280B7670C4003A7E1
:1008B000C710137707E023A6E71003A7C710136735
:1008C000F71F23A6E710B7670C4003A70711619B2A
:1008D00023A8E71003A707111367770023A8E710E1
:1008E00037670C4083278710E576FD16F58F2324A4
:1008F000F710832787109D66D58F2324F710B767DD
:100900000C4083A6C711E19A23AED71083A6C71166
:1009100093E6760023AED710B7670C4083A6471145
:10092000C19A23AAD71083A6471193E6F60023AAFB
:10093000D710B7660C4083A746109397474923A268
:10094000F61083A746109397472923A2F610B7679E
:100950000C40938707109043799A90C39043136695
:10096000160090C390431376F6EF1376F6DF90C32C
:1009700090431366063090C38C433706FDFF7D1607
:10098000F18D8CC38C4337050300C98D8CC38C4318
:100990009395C5489395D5488CC38C439395C528AA
:1009A0009395D5288CC38325871093F5F58F232441
:1009B000B7108325871093E505702324B71083258E
:1009C0008710E1992324B7108325871093E57500DC
:1009D0002324B71083A54610BD9923A2B61083A582
:1009E000461093E5050123A2B61094439396464919
:1009F0009396564994C394439396462993965629C1
:100A000094C383278710F18F2324F710832787103F
:100A1000C98F2324F7108280B7670C4023A80702F0
:100A2000B7670C4023AA07028280797106D622D4C8
:100A300026D24AD04ECEB7970F403EC49387074088
:100A40003EC61309F5FFB7274E0E9387F7BF33B99C
:100A5000270125092400FD5980402285A53B1C481B
:100A6000F99B1CC85C4093F707FCB3E727015CC007
:100A70001C4893F7F7DF1CC8232234052285153B59
:100A8000010001000100010001000100010001005E
:100A900091041C08E392F4FCB2502254925402597F
:100AA000F24945618280411106C6B7970F40D107D0
:100AB0009C43858B89CB37152707130505E0B53790
:100AC000B2404101828037950F40E531EDB74111C9
:100AD00006C697001018E780E0EFB747122003A77B
:100AE00007240DCFB79700409387278D9315B02823
:100AF000379601401306268D31A0058305C3AE97B6
:100B0000638EC70093761700EDDA948793E656005C
:100B1000948F948793E65600948FC5B7B2404101F5
:100B20008280B787004003A707331367170023A805
:100B3000E7328280411106C6854537850240EF00C5
:100B4000422985453785024013050520EF006228BC
:100B500085453785024013050540EF008227B240E6
:100B600041018280411106C6114789460946B735C1
:100B70003101938505D037254E0E130505C0A12EF2
:100B8000B24041018280411106C65136393BB7E778
:100B90000C400547F8D74935EF00A2052937D9376A
:100BA0009139EFF0F16D2537AD3F6937EF00223213
:100BB000B2404101828000000000000000000000FF
:100BC0005D7106C012C216C41AC61EC82ACA2ECC2F
:100BD00032CE36D03AD23ED442DC46DEF2C0F6C245
:100BE000FAC4FEC673D0E57E7350F67E73D0B67E2F
:100BF000732520348A855920D2527390427CC25288
:100C000073901234B2527390223482401242A24244
:100C10003243C2435245E245724682561257A257AA
:100C20006258F258064E964E264FB64F61617300D9
:100C3000203000000000000000000000B7B7C4042E
:100C40009387074037071220232CF7228280828067
:100C50008280411106C6B74712209387477F88C319
:100C6000F326907CD4C3F326103494C7F326303493
:100C7000D4C78CCB9841D8CBE13F01A0411106C627
:100C800022C426C24AC02A842E8993144501D180E9
:100C90007D3F9357440093F7F70F9DE3B75712201A
:100CA0009387C780B3C4F4209C4081C7CA8522853E
:100CB00082970145B2402244924402494101828018
:100CC0008567FD176387F400B7170008938727C56A
:100CD000E9BFB757122083A7C784C1BFB747122007
:100CE0009387077ED843A3050700D8435843D043D2
:100CF000148293F6160E148AD04314829357470138
:100D0000F98BD58F1C8ACD47B74612209386067E75
:100D1000056613053010D84233C7E72032972C837D
:100D200093F5950F2C8BD84233C7E72032972C834D
:100D300093E525002C8BD84233C7E72032974C83AC
:100D400093F5E50F4C8BD84233C7E72032970C83DD
:100D500093F5E50F0C8B8507E39FA7FA014737460C
:100D600012201306067E85654D455C42B347F72089
:100D7000AE97D48393F6E60FD48B5C42B347F7204B
:100D8000AE97948393F6E60F948B0507E31FA7FCB9
:100D9000828039C1F32720FC1397F70063580702BC
:100DA000F327707F93F707C01CC1370702003E97F7
:100DB00058C1370703003E9718C5370704003E9710
:100DC00058C537070500BA971CC98280B707000CC1
:100DD0005CC1B70700021CC58280411106C622C44F
:100DE000732440F11374F40F2DC0735040BC736032
:100DF000027C7360127C7360A47CB707040073A04C
:100E0000A77C7360087C7360187C9307001073A044
:100E1000A77CB707200073A0A77CF32720FC93F7DB
:100E2000072099C373E0A07CF32720FC93F70740C9
:100E300081C7C16773A0A77C0F00F00F0F100000DF
:100E400019C8B2402244410182803745122013055F
:100E5000057E813759BFB7373101938707D03707F0
:100E60001220232CF722B75712209387C78093862E
:100E7000070437170008130727C598C39107E39E97
:100E8000F6FEB757122023A6E784893D5DBF01A077
:100E9000B74712209387077EDC433345F5208567EB
:100EA0003E955C8193E717005C898280B7471220EA
:100EB0009387077EDC433345F52085673E955C814B
:100EC00093F7E70F5C898280B3D5C502FD15E99DD4
:100ED0002314B5008280797106D622D426D24AD056
:100EE0004ECE52CC56CA2A842E8AB2893689BA840A
:100EF000B7E70C4023A407001305600997001018FA
:100F0000E780A0AE37E70C405C43F99BF59B93E785
:100F100017005CC337E70C40C167FD171CCF37E7EC
:100F20000C401CCB37E70C405CCBB7E70C40854A44
:100F300023AE57011305600997001018E780E0AA57
:100F400097001018E78080ABB7E70C4023AA57231F
:100F5000B7E70C4023A85723B7E70C4023A057213D
:100F60001305600997001018E78020A88967938708
:100F70000771B356FA023355F40293151500B7C73B
:100F800098009387F7D8054663FD47019307401FF4
:100F9000B3F7F602B9E7B16693860635B356DA02BF
:100FA0001546B6872E873E88B377F7024287E5FF5E
:100FB00033D70503559FBD679387F7A563F0E70413
:100FC00033D806039307100363E107059D470547E0
:100FD00063FF0703130768003357F7023358E8022B
:100FE0003DA09307C012B3F7F6020546DDFB9D66F0
:100FF00093860653B356DA020D4665B73D6813086B
:10100000F8A52E983358B80275BF1D471D48636573
:10101000E800BA8742873E88B3070703CD9FB3D65F
:10102000D702DD75938535D8BE95B7D80200938871
:10103000288E63E2B80AB3D7E702B3D707038583E4
:10104000631DF508B7E70C4023A8D7209317660067
:10105000D98F0E08B3E7070137E70C402326F720A6
:10106000B7E70C4023AA0720B7E70C40094723A4A1
:10107000E7208147638B07105AC8131B1400B797EA
:1010800098009387F76763F747195EC662C466C224
:10109000B7C7C9019387F73763F3470513561A009B
:1010A000094CB747C3239387F75F854A63E6C700B8
:1010B000B30AFB00B3DA6A039307100363E4570330
:1010C0009D47854C63F25703938C6A00B3DCFC02A6
:1010D000B3DA9A0311A8FD5771BFFD5761BF52865D
:1010E000054CC1B79D4C9D4A63E59A01E687D68CB5
:1010F000BE8AB38B5C03B38B6B03814613958B0164
:1011000093D58B00EFE07128B7F7A5E99387F743F4
:10111000BE9BB757C76C9387E7A363EF770F13574F
:101120008501B7E70C4023A8E72093176C00B3E7CD
:1011300097018E0AB3E7570137E70C402326F720C3
:1011400022052181B7E70C4023AAA720B7E70C406E
:1011500023A407208147B24B224C924CF9C3335B46
:101160004B03B7E70C4023A86721B7E70C401307F0
:10117000900423A6E720B7E70C4023AA0720B7E78F
:101180000C40094723A4E720424BB7E70C40054732
:1011900023AEE720B7E70C4023A00722B7E70C40B7
:1011A00023A20722294597001018E7800084B7E79B
:1011B0000C4023AA0722294597001018E780E082F7
:1011C000B7E70C4023A0072013056009970010180B
:1011D000E780A081B7E70C4023A8072237E70C403F
:1011E0001307C7231C43858BF5DFB7E70C40054782
:1011F00023ACE7227BA64906914763E637037BAC25
:1012000019027BC62906B7E70C4015671307575527
:1012100098CB3DA0FD5799B7FD57B24B224C924C4D
:1012200035BF424B9DB77BC48904B7E70C40130719
:10123000101098CB31A0B7E70C4041677D1798CBD1
:101240007B2A4906914763EA27037B2019047B4ADE
:101250002906B7E70C40156713075755D8CB1DA8CB
:10126000B7E70C4005671307171198CBD1BFB7E755
:101270000C4041677D1798CBE1B77B448904B7E701
:101280000C4013071010D8CB31A0B7E70C404167D2
:101290007D17D8CB7BA1440C914763EA97027BA0D2
:1012A00014047BC1240CB7E70C401567130757558E
:1012B00098CF1DA8B7E70C40056713071711D8CBC7
:1012C000D1BFB7E70C4041677D17D8CBE1B77BCBE7
:1012D0008408B7E70C401307101098CF31A0B7E788
:1012E0000C4041677D1798CFB7E70C400547D8CF32
:1012F000B7E70C4098C71305600997F00F18E7800F
:10130000C06EB7E70C4023A60700B7676202938759
:1013100007A03354F4021307E4FFE54763E4E70250
:101320009307F4FFEE07370700087D173317870090
:10133000B7060008F916758FD98F93E7170037E7BE
:101340000C401CD7B250225492540259F249624ABE
:10135000D24A45618280B7E70C4005671307171131
:1013600098CF59B7B7E70C4041677D1798CFADBF0D
:10137000011106CE22CC26CA4AC84EC652C42A84BF
:101380000319850042098319A500C2090315E50068
:101390008317C400835584019105B7040080FD14B0
:1013A000B3D5B4403306B0405D9DEFF06FB58357C1
:1013B00084019107331AF500031504018317C40053
:1013C0000357A401B3D5E4403306B0405D9DEFF070
:1013D0002FB38357A4013315F500635249051C4010
:1013E000635FF00213D787400507998F1CC0014542
:1013F0001C403E9508C04E86CA855295EFF04FB00E
:1014000048C04E86CA850840EFF08FAF08C0F24052
:101410006244D2444249B249224A05618280E3597A
:101420003AFD1C40E3D607FC13D787407D17998F00
:101430001CC0014575BF411106C622C426C22A84BC
:1014400008419356F54158489357F7413386E602D1
:101450007F96A7C47F17A7F0B29793944701318373
:10146000D98C6357A0044C44858DB3E5050A104818
:10147000184C9357F741D99EFF96A7C47F18A7F041
:10148000B69893970801135708015D8F08443A9561
:1014900008C4EFF0EFA608C4269548C010484C4495
:1014A000EFF00FA648C0B24022449244410182802E
:1014B0001048058E3346060A4C445DBF3387A5406D
:1014C000638FA500599E9357F640ED9F99E7132728
:1014D00017003307E040936717003E956D9D8280AB
:1014E00074868606138816005C86AA9721673347A0
:1014F0000703D99F0547158F3E07334707034D9FC5
:10150000B385E74083174600BE9593D7F540139700
:10151000F700998D2312B600088E139557608280CC
:10152000828082808280828073002030730020302D
:10153000374712208357E728938617002317D728A9
:101540003757122013070787B3A7E720888F8280B9
:101550002A86B7270C409387070083D72701139764
:101560004701634C0710B7270C409387070083D7C8
:101570004700139737016347070837270C401307C5
:1015800007008357E70093F707C093E70705231782
:10159000F70049E2375712201307C78583564700E3
:1015A00093852600E99DB7270C4093870700239574
:1015B000B700835567002398B70003578700239827
:1015C000E70095C681470147375512201305C585A9
:1015D000B7250C40938505003327A7200357A700A4
:1015E0002398E5008507ED9F3E87E3C7D7FEB72721
:1015F0000C401D67130707E2938707002399E70054
:1016000032858280B757122083A7C7850565FBA660
:1016100037F682807B2C1602B7270C409387070091
:1016200009472395E700375712201307C7858356CC
:1016300067002398D700035787002398E7001967AE
:10164000130707622399E70001458280B7571220EC
:1016500083A7C785FBC237FCB757122003D707867D
:10166000B7270C40938707002395E7001D671307F2
:1016700007C22399E700014582801565130555557A
:101680008280411106C6B757122083A7C785B9EBE0
:1016900022C426C2AA841304400605C105454D3D57
:1016A00005C99307F4FF33C4070813970701418363
:1016B00075F72285224492441DA00145513D35E530
:1016C000B7571220054723AEE7842244924401A86D
:1016D000B7571220094723AEE78422449244B24010
:1016E000410182807BAB37000145FBCA57FEB757EB
:1016F000122023AE07840545DDB722C4130440063B
:101700000545B93501CD9307F4FF33C40708139796
:101710000701418375F722852244D1B7B7571220BC
:10172000114723AEE78422445DBF268522449244BC
:101730007DB70547B75712202398E7843C85FD17EE
:10174000E99F636CF712411106C622C42A84B74789
:10175000122083D7672691CBB747122003D7C7261D
:1017600093073006014563F3E704B7471220239639
:101770000726B7471220239307261C84C107860734
:10178000E99F375712201307C78593D68700231385
:10179000D70093F7F70F2314F7003C848607231232
:1017A000F7000545F93D7B2715000145B24022446D
:1017B00041018280B747122003D8472605083348E5
:1017C00008082392072738847D176D9F634007041C
:1017D000B75612209386C685B346D7201306270036
:1017E0003326862001A81C8E7D176D9FF116791671
:1017F000634E070083D7A600A20783D5C600AE9725
:10180000E99FFB2218FE0C86E380F5FE7B28180278
:10181000635A0704B747122083A70728F517B33781
:10182000F0008907B746122003D726260507699FCF
:101830002391E626635BF70001458DBFB747122071
:1018400005472391E726014595B7B7471220239214
:101850000726B75712209387078523900700239107
:101860000700A9B7B747122023920726B7471220CF
:1018700005472393E726014515BF11458280B757D9
:1018800012200547239AE7841C853885B386E70034
:10189000F99B890763C6D71A411106C622C42A8458
:1018A0007D17699F8547114563E9E70AB74712200D
:1018B00083D7072691CBB747122003D7C7269307B4
:1018C0003006014563FBE708B74712202396072639
:1018D000B747122023900726B747122083A7C725B2
:1018E000A5E3B74712200547239DE7243757122069
:1018F0001307C78583574400A1832315F700834747
:1019000044002316F7001C84C1078607E99F93D67D
:1019100087002313D70093F7F70F2314F7008947A5
:101920002312F7000145B13BAA8701457BC7170287
:101930003C847BA81702B7471220054723AEE72453
:10194000B747122083A7C7257BA31702B7471220EA
:1019500083A7C72501457BA42706B2402244410145
:101960008280B7471220094723AEE724D1BF3757FB
:1019700012201307C78583576400A1832315F7003E
:10198000834764002316F7001C84C5078607E99F78
:1019900093D687002313D70093F7F70F2314F7008C
:1019A00089472312F7000145E939AA870145FBC69B
:1019B00017FAB7471220094723AEE72441BF18841E
:1019C0003745122093078527988F38842391E700A5
:1019D00013058527B93B7B4715063C84FD17ED9F12
:1019E00063C60702138727000607B74512209385B1
:1019F00085273306B700B306E40010869486631784
:101A0000D600FD17ED9F7917E3D507FE63CD0700DC
:101A1000B747122005472390E726B747122023AE89
:101A2000072401451DBFB7571220938707852392CE
:101A3000070023930700B747122023AE072431BFC6
:101A400011458280014511BFB747122023A0072806
:101A5000B747122003D7C7287B27C704B7461220F1
:101A600083D7A6263746122003568626B297E99FCB
:101A70002395F626B746122083D6462863E3D70877
:101A8000759B699F7B241702B747122083D7C7280D
:101A90007BAE4704B747122023960728B74712208A
:101AA000239507288280239607288280411106C645
:101AB000EF101000B747122083D7C7287BAD47002F
:101AC000B747122023960728B747122023950728E7
:101AD000B24041018280B7571220938787C00547E3
:101AE0002395E76E79572396E76ED9BFB757122033
:101AF000938787C005472395E76E79572396E76E4E
:101B000051BF8280374712208357C7268507231687
:101B1000F726B757122083D7078599CFB7571220DA
:101B200083D727858507E99F1307A00F636EF70406
:101B3000375712202319F784B757122083D74785C8
:101B400099CFB757122083D767858507E99F130779
:101B5000401F6365F70437571220231BF784B747EC
:101B6000122083D7C728B9CFB757122083D7A785AC
:101B70008507E99F09671307F7F3636BF702375788
:101B80001220231DF7848280B757122023990784DF
:101B9000B747122009472390E72C79BFB757122087
:101BA000239B0784B747122005472390E72C45BFA6
:101BB000B7571220239D0784B74712200D47239063
:101BC000E72C8280B7571220239D07848280B76755
:101BD0000D4093870780985F799B98DF985F759B8E
:101BE00098DFD85313673700D8D3D8531367C7008B
:101BF000D8D3D857799B759B13671700D8D7D85778
:101C00006D9B5D9B13674700D8D78280B7270C4038
:101C10009387070011672399E7001547239CE70086
:101C200065472393E7002394E700130740022391BD
:101C3000E7001167130707022399E70019671307E5
:101C400007042390E7040967130707042391E704B7
:101C50008280B7270C409387070083D7470193966C
:101C60000701C182638C060E411106C633C70708FF
:101C70007B2767007B273708B24041018280B75736
:101C8000122083A7C7857BA617047BA72706FBC561
:101C900047FEB757122003D5078615C58147014770
:101CA000B7250C4093850500375612201306C685CC
:101CB00083D6C5003327C7202315D7008507ED9F9E
:101CC0003E87E3C7A7FEB7571220154723AEE78428
:101CD00065B722C4130440060945EFF07F8719C990
:101CE0009307F4FF33C407081397070141836DF787
:101CF000224459B7224449B7B757122023AE07846C
:101D0000A5BFB7270C409387070083D74700FBD7B1
:101D100017827BA11702B757122083A7C7857BA91B
:101D20002702FBCB17F4B7571220154723AEE784E1
:101D3000F13D99B7B7270C409387070003D72701D8
:101D40001317B7282399E70009472392E7002DB717
:101D5000B75712200D4723AEE78439BF8280411167
:101D600006C622C41305800797F00F18E780E0C766
:101D700037640D40130404885C4893E717005CC87F
:101D80001305800797F00F18E78020C65C4893E79B
:101D900027005CC81305800797F00F18E780E0C4A0
:101DA0001C4C93E727001CCC1305800797F00F18F5
:101DB000E780A0C3B240224441018280411106C69F
:101DC00022C437640D40130404881C4C93E71700A9
:101DD0001CCC1305800797F00F18E78000C15C4802
:101DE00093E727005CC81305800797F00F18E7807A
:101DF000C0BF5C4893E717005CC81305800797F0E5
:101E00000F18E78080BEB240224441018280411118
:101E100006C622C426C2B7670D4093870780D85BE9
:101E2000799BD8DB9304003237640D401304048897
:101E30001C4C93E727001CCC1305800797F00F1864
:101E4000E780A0BA5C4893E727005CC813058007C9
:101E500097F00F18E78060B99387F4FFB3C40708C1
:101E600013970701418369F7B7670D409387078888
:101E7000984F1367270098CF1305800797F00F1826
:101E8000E780A0B6B7670D4093870780D85B1367DC
:101E90001700D8DB1305800797F00F18E780E0B430
:101EA000B2402244924441018280411106C622C4BC
:101EB00026C237640D40130404801C5CF99B1CDCB3
:101EC0001C5CF59B1CDC5C5093E737005CD05C50DD
:101ED00093E7C7005CD05C54F99BF59B5CD45C54E1
:101EE000ED9BDD9B5CD45C5893E717005CD85C5895
:101EF00093E727005CD8B7640D40938404889C481E
:101F0000F99B9CC89C48F59B9CC837550700130556
:101F1000053097F00F18E78040AD4D355C5893E7DA
:101F200017005CD8DC4893E71700DCC85C58F99BC5
:101F30005CD89C48858B054795C7B7670D4093874C
:101F40000780D85B13671700D8DB37670D4013078E
:101F50000788144F93E6160014CFD45BF99AD4DBAC
:101F6000184B058B7B271700B24022449244410155
:101F70008280713DED339935C5BF9307103663F903
:101F8000A700938781A23325F5200355C59382804E
:101F9000B70712207B15A5C09387874CAA9703D556
:101FA00087008280011106CEB747122003D7E728A9
:101FB0009307300663F2E702B74712201307400683
:101FC0002397E728B747122083A7074E91C7B74743
:101FD000122011472390E72CAD39B747122083D741
:101FE000C7289DEBB747122083D7A728EDCB3747EB
:101FF00012202316F728138737FF3337E0000A072C
:10200000B74612202395E626374712209306203A3A
:102010002312D7287BA1B70AB747122083A7072826
:1020200063960712B747122003D7C72885467B223D
:10203000C702B747122083D7A72693F6E7FF890682
:10204000E99E3746122003564628B3D6C60A9D8E0F
:10205000E99EB74712202394D726B747122003D60C
:10206000A726B747122093878727908F2391D70001
:102070007B24A70A7B28470A81470145635DD00E70
:10208000B73512209385453213082036E99F330770
:10209000F600699F3327B7201887631E0709850755
:1020A000ED9F3E85E3C4D7FEB747122013072036C5
:1020B000239CE72469A0B747122003D58728753DE4
:1020C000B74712202395A726B747122003D56728C4
:1020D0006D350505B74712202392A72835BFB747AE
:1020E000122083D7E728C9C737471220B1462316E5
:1020F000D728FD17E99F374712202317F7283757AE
:10210000122013070787B3A7E7208887BD35B74795
:1021100012202395A72609B7B7471220094723A005
:10212000E7282DA0856793870781B297374712204C
:10213000231CF72691B7B7471220239CE724638E10
:10214000A602B7471220054723A0E728B747122069
:1021500083A707287BA61702B747122083A7072863
:102160007BAE2702B747122083A707287BA4372618
:10217000F240056182800145D9B7EFF0FF8CF9B7D5
:102180003745122013058527EFF0AFDAFB4615FC23
:10219000B7471220094723A0E7287DBFB747122081
:1021A00083D7C7287BAD47041307501F6389E70413
:1021B000B7471220239B0724B747122003D787264F
:1021C0006307071C22CC26CA4AC84EC652C456C250
:1021D0005AC08147B73A1220938A4A32B744122034
:1021E00037591220130989C0B749122093898927CA
:1021F00037441220374A1220130A0A2755A813071A
:10220000501F6388E702B747122083D7A7263745B8
:102210001220130705271C8FB747122083D7872664
:102220002311F70013050527EFF0AFD0FB4215F49B
:1022300041B7B747122083D7A72605671307078141
:10224000BA97E99FE9B77B2D17007B433702854595
:102250005A85EF100010332B2B212310AB0009A857
:1022600081455A85EF10E00E332B2B212310AB0054
:102270008357642503D78425332727211887B3A6DE
:1022800047212392E600B3A6372183D64600638711
:10229000E600374712208D462320D7288507E99F7F
:1022A000231BF424374712200357872663FAE70CD1
:1022B000374712200357A7263E97699F3327572198
:1022C000035B0700239C6425374712200357C72868
:1022D0007B2FA704A946E3F8E6F67B21D7049306F3
:1022E000501FE317D7F813071036E36367F9130796
:1022F0008BDE699FC946E3FDE6F6375712201307C8
:1023000087C0332BEB203747122013070727B3A7CB
:10231000E72083D747002310FB0099BF332B2B21E5
:10232000B3A7372183D747002310FB0091B793074A
:102330008BCFE99F1D476378F7009307CBCEE99FCA
:102340003D476368F700B747122083D7674D7BA8E6
:1023500017009307BBC8E99F05476368F700B747B5
:1023600012200D4723A0E72821B75A85EF00107AE5
:10237000B7571220938787C0B327FB20888FC5B734
:102380006244D2444249B249224A924A024BB74778
:10239000122083A707287BCC3702B747122083D6A9
:1023A000A726B747122093870727948F2391E7002A
:1023B000B747122083D7C728FBC647DA85679387BC
:1023C0000781BE96B74712202398D72661BBEFF04E
:1023D000AFE749BB3745122013050527EFF02FCA99
:1023E000FB4815D8EFF04FE661B3B747122083D70B
:1023F0000762898B91E7374712200327074E19E7B9
:10240000374712200327074E7B4727003747122004
:1024100085462314D72A374712200357872A15CB1E
:102420003747122003570763058B11C73747122020
:10243000A546231FD72A374712200327C72A7B2701
:1024400017027B20270411E7B747122083D7A7285C
:1024500091C38280411106C6EF00D042B7471220D7
:10246000054723A6E72AB24041018280B7471220E0
:1024700083D7C728F9FFB7471220094723A6E72AC1
:102480008280E1DBB747122023A6072AB747122034
:102490002394072A8280B747122003D6A72B6DC644
:1024A000B747122083D7C7296380C70E930706FB5F
:1024B000E99F2547637AF70CB7571220138787C027
:1024C0008356272A2310D72A8356472A2311D72A2F
:1024D0002312C72A9306E7FE938787C083D5A72CCC
:1024E000239FB72CF917E39BD7FE8357672B231540
:1024F000F72C7917E31BD7FEB7571220938787C0B5
:10250000374712208326873F3307D0403367D70AE7
:102510002393E72A374712208356C73D2394D72AAF
:10252000374712200357A73E2395E72A3757122033
:10253000032707522396E72A3747122003570748F5
:102540002397E72A37471220035707632398E72A80
:1025500037571220130707A08355A7002399B72ADE
:1025600003578700239AE72A374712200357673B10
:10257000239BE72AB747122083D7473E7BA7270034
:102580009307C0036303F6008280B747122083D706
:102590000751E3FBF6FE375712202318F7EA828033
:1025A000B747122083D7072985E3B747122083A7AF
:1025B000874993F7072089CB374712208357476312
:1025C0009397C728231AF762B747122083A7874932
:1025D000FBD7978293F7F70F374712202318F72876
:1025E000B747122083D7676B7BA357008280B7471A
:1025F000122083C7872BB98B7BAB6700374712202C
:10260000835747639397C728231AF7628280B74797
:10261000122083D70763858BF1FBCDB7B747122014
:1026200083D7A72B7BAE970055476382E7023747D6
:1026300012200347872B398B01457B21670282805B
:10264000B747122003D5872A133515008280B74774
:10265000122003D5072C133515008280374712202E
:102660000357C72BE30DF7FC374712200355473EAE
:102670001D8D3335A0008280B747122083D7A72B4A
:102680005D4701456380E70A1307C003638CE708D1
:1026900037471220035547630567798D05C5B7474E
:1026A00012202390072AB747122083C7872BB98BA4
:1026B00005457BA92706B747122003D50763759DFB
:1026C00005898280374712200357072AB756122000
:1026D00083D6E6E96378D704F917E99F894663E46E
:1026E000F604B757122083D627EA9547B3F6F60AC1
:1026F000374612208357262A8507E99F2311F62A99
:10270000FB9626C363E0D7020507B7471220239044
:10271000E72A37471220835747639397B748231A0E
:10272000F76205458280B757122083D627EAC9B7DA
:10273000411106C6E535AA87054581C7B24041016A
:1027400082801D3F3335A000D5BF411106C6893DAB
:10275000B747122083A7472A850737970400130736
:10276000073E6363F706374712202322F72AB7474D
:10277000122083D7A72BE5C3374712202319075A06
:10278000374712200347872B398B7B28270437478D
:1027900012202322072A374712200327072B7B2BDF
:1027A000270E894663E5E60655CBB747122083D747
:1027B000A728D5E3B7471220094723A8E72AB74738
:1027C00012202390072C41A8B747122023A2072AE2
:1027D000B74712202390072A59BFB746122003D7C4
:1027E0000663799B2398E662B745122003D7C5623A
:1027F000374512208356856279761306F67FF18E6F
:102800002314D562137787E52396E56249B77B44A5
:102810003704B746122003D74662799B2392E662BB
:10282000374712200357E72B630FF708374712206B
:102830000357473E630EF708B7471220239D072A28
:10284000374712208347872BC59B230CF72AB747AE
:10285000122023A8072AB24041018280B7471220E4
:1028600083D7A728EDFBB74712202D472395E728EC
:10287000B7471220130700152394E728B747122003
:102880001307F0162393E728B7471220054723A81C
:10289000E72AD1B7713D61D1B74712202391072AAA
:1028A000B747122083D7473E89CB3747122083573B
:1028B000476293E717002312F762B74712200D47CC
:1028C00023A8E72A49BF37471220231F072AB9BF89
:1028D000B74712202392073E85B79307000463E3AE
:1028E000A70E011106CE22CC2A8493874184B347D8
:1028F000F5209C4382870545F24062440561828051
:10290000B757122083D5A7EE4800EF700054B547A3
:1029100063EA87001C083324F4200355E4FD050511
:10292000699DD9BF1C083324F4200355C4FD050557
:10293000699DD9B7B757122083D5C7EE4800EF700D
:10294000C050D54763EA87001C083324F4200355A0
:10295000C4FC0505699D4DB71C083324F4200355BC
:1029600084FC0505699D49BFB757122083D5E7EE62
:102970004800EF70804D1C083324F4200355E4FB1D
:102980000505699D95BFB757122083D507EF48000D
:10299000EF70A04B1C083324F420035504FA0505FE
:1029A000699D99BFB757122083D507EF4800EF7094
:1029B000C049035581000505699D3DBF0D452DBFEB
:1029C00011451DBF05458280397106DE56D262CCA5
:1029D00001452137B74712201387073E03DC073E26
:1029E0003C87336CFC00E28A63050C0A22DC26DAA1
:1029F0004AD84ED652D45AD05ECE66CA6AC86EC67F
:102A0000814AAA8B138981940144014CBD49374BFB
:102A10001220930C0B3E375D1220130DCD46594A00
:102A200029A883D72C00130704FFB3D7E740E99FF9
:102A300031A80504090963044405B3440408E3E22A
:102A400099FE83570B3EB3D78740E99F858BF5D31B
:102A5000835D09006E855135E37D75FD93D72400B4
:102A6000B3A7A72183DA07008D888A04B3DA9A40D6
:102A700093FAFA007B2C1502AA8B6E8C5DBF625410
:102A8000D2544259B259225A025BF24BD24C424DB7
:102A9000B24DB74712202392873FB7471220239F9A
:102AA0005729F250925A624C216182806E8C625496
:102AB000D2544259B259225A025BF24BD24C424D87
:102AC000B24DC1BF411106C622C4FD3DB747122019
:102AD00003D7E729B7471220239AE72AB7571220CE
:102AE00003D7A716B747122083D7A73E63E8E700AE
:102AF000B747122083A7074E7BAD1702B7471220B6
:102B000083D7473E7BA127047BAF57063747122068
:102B10000357E72B7B295706130750036388E726E3
:102B2000638007287BAE972637471220231DF72A9C
:102B3000B5A8B74712201547239FE72AB7471220A9
:102B4000239A072A65BFB747122083D7076393F7F5
:102B5000070613070002638CE70013070004638E67
:102B6000E700B74712201147239DE72A81A0B74706
:102B700012200947239DE72A15A8B74712200D47C1
:102B8000239DE72A25A0B747122083D7076393F731
:102B9000070613070002638FE71C13070004638115
:102BA000E71EB74712201D47239DE72AB74712208B
:102BB00003D5E72B1D332A84B747122083D7874DCF
:102BC0003747122003576729630FF7003747122052
:102BD00003570763058B01CBB746122013069002FB
:102BE000239FC62A3A8437471220231BF728B7476A
:102BF000122083A7874913974701634E0700B74701
:102C0000122083A7C749898B99EBB747122083A766
:102C10004749898B89C73D45C93163688518B747DE
:102C2000122083A7C74913973701634C071AB74788
:102C3000122083A7C749139727016341071CB74791
:102C4000122083D7072C6398071CB747122083A64E
:102C5000873FB747122083A787343387F640958F85
:102C60003367F70AB747122083D7A730B756122029
:102C700083D666F1D59F9306803EB3D7D70263FA19
:102C8000E702B747122083D7C72E7BA41702B747A6
:102C9000122083D7076313F7170001CF375712208D
:102CA000035787F119C7B756122083D6265D7BA13B
:102CB0001618B7471220239A0728B747122003D7C0
:102CC0004729B757122083D787F1FB9727C363C3E0
:102CD000E718B747122083A7073D3307F040336753
:102CE000F70AB747122083D6A730B757122083D7E9
:102CF00027F19387873ED59F1306803EB3D7C7023F
:102D000063E6E7009386867063D8E600B757122023
:102D100083D7275D7BA01716B74712202399072872
:102D2000B747122083D7272963910718B747122086
:102D300003D5A72B5D36637AA400B747122003D7CB
:102D4000E72BB7471220239DE72AB747122003D766
:102D5000A72BC147630CF716B747122083D6E72B82
:102D600037471220231ED72A239F072AB240224426
:102D700041018280B74712201547239DE72A3DB5C0
:102D8000B74712201947239DE72A0DB5D14737478A
:102D90001220231DF72A374712202312F73E39B598
:102DA000B7471220239A072A11B5B74712203D478B
:102DB000239FE72A3D4515362A84B747122083A76B
:102DC00087491397470163580700B7471220054703
:102DD000239AE72AA9B5B74712200947239AE72A79
:102DE0003DBD6D45DD3CE37485E4B74712206D477A
:102DF000239FE72A6D45D5342A8415BD7145F13CE2
:102E0000E37F85E2B74712207147239FE72A714588
:102E1000E9342A842DB55545C934E37885E2B747AE
:102E200012205547239FE72A5545453C2A8431BD4A
:102E3000A18BE39007E8B747122083D64729FB17F9
:102E400027C39507E3CBD7E68506B7471220239A19
:102E5000D728A5B51305A0024934E37C85E6B7471A
:102E600012201307A002239FE72A1305A002B534FE
:102E70002A8485B5B757122083D747F1E38E07E838
:102E80003747122003570763258BFB4717E837475F
:102E9000122003572729FB9727C3E3C3E7E8050759
:102EA000B74712202399E728A5BD1305B002353492
:102EB000E37E85E6B74712201307B002239FE72A77
:102EC0001305B002EFF07FA12A848DB5B747122019
:102ED00003D74725B7471220239AE72AB5BDB7473E
:102EE000122003D5A72B814701ED374712201395F8
:102EF00017008347872BC59BC98F230CF72A828035
:102F0000411106C6EFF07F9D937775003747122079
:102F1000139517008347872BC59BC98F230CF72A6E
:102F2000B24041018280411106C622C426C2B74484
:102F30001220374412208357A42B239EF428B7472E
:102F4000122003D7872BB7471220239CE728B747C7
:102F5000122003D7472BB7471220239DE7289D3621
:102F6000BD3F03D7C4298357A42B6387E706B74720
:102F7000122083C7872BB98BA1C7B747122083C6FE
:102F80008729B98A93071004B3D7D748B1E7B74761
:102F9000122083A6872BB747122083A78729FBD649
:102FA0001686FBD7178663E9F602231DE42AB74786
:102FB000122003D78729B7471220239CE72A29A884
:102FC000B7471220239DE72AB747122003D7872946
:102FD000B7471220239CE72AB24022449244410181
:102FE0008280411106C6EFF04FC0353FEFF0AFCA07
:102FF000B24041018280411106C622C4B747122067
:103000002D472395E728B74712201307001523946F
:10301000E728B74712201307F0162393E728B7577E
:103020001220938787EA37571220130787EE2390E1
:1030300007008907E39DE7FE37541220130484C07C
:103040002311042013051010EFE08FCE231C046C15
:103050001305C036EFE0CFCD231504201305501023
:10306000EFE00FCD2313046E13053037EFE04FCCA4
:103070002316042013056010EFE08FCBB2402244EA
:1030800041018280411106C61305601BEFE04FCA63
:1030900013051010EFE0CFC913055010EFE04FC932
:1030A00013056010EFE0CFC8B747122003D5A7562D
:1030B00045E5B747122003A78737B7571220239457
:1030C000E72EB747122003D7873593370701B30799
:1030D000F0407D8FB7571220938787C02397E76C06
:1030E0003747122003274735935607012398D76C9B
:1030F0002399E76C374712200357673D2391E76E0A
:1031000037671220130747E4835607052395D772C4
:103110008356E7042394D7728356C7042393D77248
:103120008356A7042392D772035787042391E7722B
:10313000B74712202D472395E728B74712201307DA
:1031400060362394E728B74712201307503923939A
:10315000E728B24041018280EFE08FBD99BF93879D
:10316000C1989386419711A0BA8798876307A700F3
:103170001387E7FFE39AD7FE8280397106DE22DCEF
:1031800026DA4AD84ED652D456D25AD05ECE62CC27
:1031900066CA6AC86EC6894C375D1220130DCDA071
:1031A000B70A1220938A8A4C375A1220130A8AC00F
:1031B000D9A0B3A744219087BA86ADA0B3A7442174
:1031C000988F2685EFE0CFB6EE8785A0B3A6442181
:1031D0009086BA86B5A8B3A444219884B327452124
:1031E000988FEFE0EFB47D146D9CF919634D0406E0
:1031F0004E8B83D40900FB97A4C0D69703D96700F0
:10320000937709209DC3FB97A4C0D697BC87B3A72B
:1032100047219887B3777901C9DFB3A74421D087C5
:1032200093165760E287E3CBC6F81377094045DF72
:103230007B97A4C056970887332745211887337991
:103240007901E30509F8B3A64421D08693165760A7
:10325000E35BD6F8C9F3B3A44421988C03550B0063
:10326000EFE00FAD49B79387FCFFB3CC0708139786
:103270000701418319CFB747122003D4472C7D148F
:103280006D9CE34204FEB329A421896B014C854D5A
:1032900085B7F2506254D2544259B259225A925AC6
:1032A000025BF24B624CD24C424DB24D21618280A6
:1032B000411106C6B7571220938787C0239207444F
:1032C0002393074413052022EFE08FA61305302235
:1032D000EFE00FA6EF809011130510024935B747B4
:1032E000122023AC0736374712208357C73593F790
:1032F000F7FB231EF734B7471220239A0762B7471C
:103300001220239C075AB24041018280AA871307EA
:103310001036636CA70037071220FB17A5C01307F0
:10332000874CBA9703D5470082801307503763084C
:10333000E5001307603701456388E7008280B757CF
:10334000122003D5272F8280B757122003D5472F8D
:1033500082802A86930785DEE99F3947637BF702DF
:10336000930785CFE99F6D476375F702930705EBD8
:10337000E99F7D47637FF700930735FEE99F1307B9
:1033800040026377F700930765DBE99F636FF700FF
:1033900089EDB7571220938787C0B327F620888717
:1033A000B74712202391A72C82809307301063E641
:1033B000C70A9307E00F63EAC7087B48A600B75720
:1033C000122083D787557BA227087B29C60A93073B
:1033D00006FBE99F0D476367F700B747122083D7C5
:1033E000874DA5C7930736D8E99F0D476368F70057
:1033F000B747122083D7874D7BA917049307A014E2
:103400006302F628411106C663F1C7089307102B23
:10341000630EF62463EDC7189307C02A6307F61CF2
:1034200063E7C716930790286312F612B757122066
:1034300003D5E709EF30101AD1A0130746C98567F5
:1034400093871788B3D7E748C9D3B7571220938714
:1034500087C0B327F6208887A1B793077037E3E6C4
:10346000C7F69307B036E3EAC7FC93078010E3EE94
:10347000C7F493074010E3EAC7FC81BFB757122097
:1034800083D78755FBC527F4C9B793078007630126
:10349000F61C63ECC706C94763E3C704C14763E989
:1034A000C7187B4BF604B75712209387874703D67C
:1034B0004700370712201307C7113347E6209C87C0
:1034C000B73612207B1666C0938686F6B296B4860F
:1034D000958F1843FB9727C1BA97888705A0930754
:1034E0004006631BF600B757122003D78747D14722
:1034F0001305200863E4E7003285093DB747122031
:103500002391A72CB240410182809307101163EAF6
:10351000C7029307B01063EDC71093072008630B31
:10352000F6029307D008E319F6FC37371220B75795
:10353000122083D7C747130787F9B3A7E7208887E7
:1035400075BF93076014E302F6FE7DB79307B028BA
:10355000E314F6FAB75712209387874703D647003C
:10356000370712201307C7113347E6209C87B73669
:1035700012207B1666C0938686F6B296B486958F27
:103580001843FB9727C1BA9703D5070185BF930757
:10359000E02AE313F6F637371220B757122083D705
:1035A000C747130747FAB3A7E720888781BF930768
:1035B00040346306F60A63E6C702930756D1E99FD3
:1035C0006D47E36BF7F29307D6D0E99F0D47636829
:1035D000F702B7571220938787C0B327F620888752
:1035E00031BF9307C034E319F6F0B7571220938721
:1035F000874783D547008887EF30B03101B79307FD
:1036000056D0E99F0D47636AF700B757122093879A
:1036100087C0B327F6208887D5B537571220930780
:10362000D6FF130787C0B3A7E72003D56700F9B516
:10363000B757122093878747888783D7870033350A
:10364000F5003305A040137545ED1305451F7DB505
:10365000B757122003D547C4EF30C07745B5B757E9
:10366000122003D547C4EF30902A49BD37371220C6
:10367000B757122083D7C747130707FBB3A7E72025
:103680008887ADBD37371220B757122083D7C74779
:103690001307C7F8B3A7E720888719B3B7471220E5
:1036A00083D70763918B95C337471220035747632E
:1036B000318B7B2147127B28871237571220835684
:1036C000A7E1374712202312D752B746122003D75B
:1036D000C6351377F7F7239EE63437471220035792
:1036E000E730B746122083A6C63263C9E610B74654
:1036F000122023A6E632B746122003D7C635136739
:103700000708239EE634374712200327C732B746FF
:10371000122023A8E632B74612202397062EB7566A
:10372000122083D646E389EAB746122083A6C6490B
:103730001396B600635406006343070E3747122002
:10374000035747631377070411CB89EB37471220E0
:1037500083270733B307F0402328F732B7471220F7
:1037600083A5073301476352B00E37481220131662
:10377000A7008357086393F7F7BFB746122003A546
:1037800086349316D700D18F9397D748D58F2318B7
:10379000F862B757122083D7A7C17BA2170C6353D7
:1037A000A00EB746122083D706639397B748239895
:1037B000F662B747122083D70763FBD7B782638BC4
:1037C000E71637471220835707639397C7282318B4
:1037D000F7628280375712208356A7E137471220BD
:1037E0002326D732D9BD375712200317A7E1330755
:1037F000E040B746122023A6E632C1B53307E040C9
:10380000E343D7F0B746122023A6E632B74612208C
:1038100003D7C63513670708239EE634EDB537474F
:103820001220232807323747122023120752B746A7
:10383000122003D7C63513670708239EE63437479F
:10384000122085462317D72ED5BD0547E3CF05F0B7
:10385000B747122003D747637B57678239B7B30551
:10386000B040B747122023A8B7323305A040934693
:103870001700B606835708639397D748D58F231848
:10388000F86231BF63400506B747122083D707634C
:10389000858B8DC7B747122083A50733B747122002
:1038A00003A6872E9356F64193D7F541D19FFF97F4
:1038B000B6C47F16B6F0B69763CF0702374612201C
:1038C0009316B700835706639397B748D58F23188D
:1038D000F662B747122083A60733B747122023A406
:1038E000D72EC1BDB746122083D706639397B7285A
:1038F0002398F6627DBDB746122083A7062F850761
:1039000023A8F62EB756122083D626E3FB9626C3AD
:10391000E3E1D7EA374612209316B70083570663D0
:103920009397B748D58F2318F662B747122023A480
:10393000B72E41B537471220835707639397C7487F
:103940002318F762B747122023A8072E8280B747B3
:10395000122083A787497BD667827BD77782B3669D
:10396000E60091E6B747122083D7C752A1CFB747E9
:10397000122083A5C7558147B1E5B747122083D7E9
:1039800007638565ED8F95EFB745122083A54549FF
:10399000918999C5374512200325C549118911E13F
:1039A00095E1B747122083C5872BB98985477BCB23
:1039B0006500B757122083D787EFFD1793B717001D
:1039C00011A08147B7451220239BF52EB745122041
:1039D00083D5452D6380F510E5C7B745122083D503
:1039E00005638989F1CDB745122083A5055FE9E913
:1039F000B755122083D5C5C3E1E5B745122083A58D
:103A000005333305B0403365B50AB745122083D579
:103A1000C530635AB50437481220832888343308E8
:103A200010413368180B63C00505B745122083D5D4
:103A30000563FBD5B582374512200355855B638B43
:103A4000A500B745122003A50536B745122023ACC3
:103A5000A536BDA0B745122003A54536B7451220AF
:103A600023ACA536B1A8B745122083D5C5358589C5
:103A700085C937581220130808B583258800032804
:103A800008002E98634E080A37581220032848B5BC
:103A9000C29537581220035888C1C29563CB050CD4
:103AA00037481220B745122083A88534B30510414A
:103AB000B3E5150B898D03258837AA95232CB836D5
:103AC00091E7B745122005452395A552B745122029
:103AD0002399052C8145F9C7B7451220239A05364D
:103AE000374512208355C53593E50504231EB534AB
:103AF000B745122083D5C5527BA515088145DDC287
:103B000011C24DE3B746122083D6C635898A814556
:103B1000D1EAB756122083D686D519C3B306D04052
:103B2000374612200317262D33A7E6208966938691
:103B30000671B345D7023367D7022319E62C9DA03F
:103B400037581220835808C10548E36F18F33748E7
:103B50001220B745122083A88534B3051041B3E580
:103B6000150BB305B54003258837AA95232CB83625
:103B700081BFB755122003D8E5C08545E3E205F3C0
:103B8000F9B7374712200357676B7B22970C3747EB
:103B900012208355472FB305B0403747122089467E
:103BA0002316D752B746122003D7C635136727000E
:103BB000239EE6343746122083268637AE96232C82
:103BC000D6361377070419E737471220831647378D
:103BD000232CD6363747122003278737B7461220C3
:103BE00083A6C63663DAE60637471220232CD7367B
:103BF00037471220032787499316C70063DE060064
:103C000037471220232C0736B746122003D7C63574
:103C10001377F7FB239EE63437471220231AF72C3D
:103C2000B747122083D7C735858B81CBB757122072
:103C300003D707C1854763FCE702B757122003D5B6
:103C400087C1B747122083A787373E9582803747C1
:103C500012208355472F91B7B746122083A6863688
:103C6000E358D7F837471220232CD73651B7B74738
:103C7000122003A587378280411106C622C42A84F8
:103C80004DE137571220035727FE994663E9E60CAA
:103C900093870199B347F7209C438287B757122037
:103CA0008397C7F7374712200357A730D99F1307C9
:103CB000803EB3C7E70265A0B75712207D176D9FFE
:103CC0007B17A7C093878749BA9783968700B74722
:103CD000122003D7A7309167FF97E6C4BD8741A0A4
:103CE000B747122083960747B747122003D7A7305C
:103CF0009167FF97E6C4BD879DA0EF105020AA876B
:103D0000B9A8B747122083D7872C89CBB747122091
:103D100003A74731B747122023ACE7300D39AA87F4
:103D20003DA8B747122083D7872C89EBB7471220CD
:103D300003A78731B747122023AAE730B7571220CD
:103D4000938787C0B327F4208397473737471220DC
:103D50000357A730D99F1307803EB3C7E702374701
:103D600012202314872C3E85B240224441018280D8
:103D7000411106C6374712208357076393E70708A8
:103D80002318F762B7471220239C072EB74712204B
:103D900083A707617BA927047BAD3704B7471220AF
:103DA00083D70763858BADEFB757122083D7E7F929
:103DB000294733F7E7027B231712D917E99F2547D5
:103DC0006374F712B747122083D7476393F7070846
:103DD000639C0710B7471220239C0734B747122073
:103DE00023AA073435A8374712200327C760FB45AD
:103DF00037FAB747122083D7472E91EFB7471220E3
:103E000083D7072D8507E99F1147636DF70A374769
:103E100012202318F72CB747122005472397E72CC9
:103E2000B747122083D7873591E737071220854699
:103E30002310D724BD46014763E0F602B75612208F
:103E4000938686C033C7D7200357873983D6863DEC
:103E50007BAC160C7B17A7C0B746122083A646354D
:103E600063EAE61437471220232A07343747122023
:103E70002318072C375712200357C7F99306F7FF6B
:103E800013BF160037461220835FA62F3746122035
:103E90008352066393F262001305E7FF3335A000F7
:103EA000120589E6374712200355C72C699D814EBC
:103EB00001473D4681488545375E1220130E8EC06E
:103EC000414871A8B74712202398072C3747122082
:103ED000832747358507232AF73435BF3747122014
:103EE0000357E72CE31B07ECB747122003D78735AE
:103EF000BD4763FAE700B747122023980734B74756
:103F0000122023A60734B747122003D70735B74737
:103F10001220239CE734B747122003A7C734B747C2
:103F2000122023AAE734EDBDA566938606CA559FE5
:103F300025B7AA87FA86636CF60033C3C7210353FB
:103F4000833963070300AE8621A0AA87EDB7AE864A
:103F50000507699F6374E800AE8EAE86A9E2850707
:103F6000E99FC686E379F6FCE365F6FDAA87FA8643
:103F7000FBC322FCB74712202395072CB70712205A
:103F800083D70724F9D3B747122085462399D7341E
:103F9000B707122023900724AA87FA8669BF3747FC
:103FA0001220231CF73463870E00B7471220054701
:103FB000239CE72EB747122003D78735BD4763F60A
:103FC000E702B757122083D7C7F985E3B747122016
:103FD0000547239CE72EB747122083D70763898BB9
:103FE00089E7B7471220239C0734B747122003D52F
:103FF0008735B74712202396A72CBD473355F50ABE
:10400000B7571220938787C0B347F52003D7A73946
:10401000B7471220239EE75A8531B747122083D72E
:1040200027358DC3374712208357A72C8507E99F73
:104030002315F72C1307C0076376F700B747122044
:1040400023990734B747122005472392E72EB24041
:104050004101828037571220130787C083564701DA
:10406000B74712202395D730373612208357C7021F
:104070001306C62BB3A7C7209C87FB9747C1B697EB
:10408000374612202310F630835787010357670104
:104090007B25470811466361E6067D17699F09463F
:1040A0006364E602B75712207B17A7C0938787493E
:1040B000BA978397870011677F97D7C43D87B75713
:1040C000122083D727C2BA97B3E7070AB3C7D70A24
:1040D000E99F374712202317F7303757122003572D
:1040E00047C2B74612202396E63063F6E700B7478B
:1040F00012202397E7308280FB4857FCB7571220E5
:104100000397672E856793878738FF17D7C409679A
:1041100013070771B3C7E70245BFB747122083975C
:10412000074711677F97D7C43D87B757122083D7BA
:1041300027C2BA9751BF1C8534853387D740336770
:10414000070A58C1B6971CC58280011106CE22CC41
:1041500026CA4AC84EC652C456C25AC0B7471220D1
:1041600003A9C732330420413364890AB7471220B8
:1041700083AA473437551220930945B4B754122007
:10418000938484C083D744222390F90003DB8422E4
:1041900023916901130545B4793F37551220130A5D
:1041A00085B383D764222310FA0023116A01130513
:1041B00085B3513703274A0083A7490063ECE70022
:1041C000B756122083A606B463E6F600B75712204E
:1041D00023A4E7B4B757122083A787B4636CF70012
:1041E000B756122083A6C6B463E6E60037571220FE
:1041F000232EF7B2375712208326C7B33757122022
:104200000327C7B4636CD70037561220032606B4C1
:104210006366E600375712202326C7B437571220AB
:10422000032707B4636CF700375612200326C6B481
:104230006366E600375712202320C7B463FF870266
:10424000375612200326C6B46379C40237471220BA
:10425000832587343307B0403367B70A635EE400D1
:1042600037471220832507333307B0403367B70A37
:104270006354E400328411A03E8463FF8602375603
:104280001220032606B46379C4023747122083251F
:1042900087343307B0403367B70A635EE4003747BB
:1042A0001220832507333307B0403367B70A6354BE
:1042B000E400328411A03684374712200357E730D8
:1042C0003344870A634D0904374612202326863279
:1042D00037561220035666E459CA3306504133E676
:1042E000CA0AB28563F1C704B755122003A8C5B442
:1042F000B285637A0603B3058040B365B40A63C32D
:10430000C502B745122083D50563858981CDB745A0
:10431000122083D54563898991C5C28529A03304BC
:1043200080405DB7BE8563FCB60237551220032579
:1043300005B463F6A502B30780403364F40A634F03
:10434000C400B747122083D70763858B81CBB7475B
:10435000122083D74763898BAA8591E3B6853347BB
:10436000B70A63C00A02B747122023A2E734F2401B
:104370006244D2444249B249224A924A024B056100
:1043800082803307E040C5B7B747122083A7C749EB
:10439000FBD7E78293F7F70F375712200357E7054C
:1043A000B98F374712202316F72EB757122083D71D
:1043B000275D7BAD2702B747122083A78749FBD72C
:1043C000D783374712208356C72EB3F7F6402316FC
:1043D000F72E7BA01702374712200357672C7B2448
:1043E0001704374712202313F72C82802316072E39
:1043F000D9B7374712200317A768634B0700375711
:10440000122083568706374712202324D732D1BF84
:10441000375712200357A7063307E040B74612204C
:1044200023A4E6327DBF374712208326873F3747D4
:1044300012202322D73475B7B747122083A6C72D81
:104440007B221506B757122083A687B5B7571220CF
:1044500003D787C13697B747122083A7072E338625
:10446000E740374812202326C836B3C7D70AB38699
:10447000E740B747122023A4D736B747122083D787
:10448000C730B388E7403748122023221837B307D4
:10449000F040ED9F998F374712202320F7367B2D70
:1044A000150282807BA21502DDF537571220130713
:1044B00007B55C431847BA9737571220035787C18F
:1044C0003E97B3E6F60A41BFB7571220938707B568
:1044D00098439C473E9741B7FBC515FCB757122040
:1044E00083D727C1A9C3B757122003A707B5B307BE
:1044F000E040B3E7E70A37571220035747C1D99F77
:1045000013074006B3D7E70263D6C7003747122028
:104510002326F736B307F040E3D5F6F837471220E5
:104520002324F7368280B747122083D7A730375726
:104530001220035747C1D99F13074006B3D7E7029C
:10454000E1B7374712208357C73593F7F7FB231E90
:10455000F734B747122023AC0736B747122023A6FB
:104560000736B747122023A40736B747122023A2E5
:104570000736B747122023A007368280B75712208C
:1045800083D727C1B5CBB757122083A607B5B3078A
:10459000D040B3E7D70AB756122083D646C1D59F7D
:1045A00093064006B3D7D702B756122083A646B566
:1045B00063DDD700B756122003D666C1A54663F661
:1045C000C600B756122023AAF6B4B757122083D6D6
:1045D00067C1A947B3D7F6027BA2270A7546636B6A
:1045E000D602A54763FCD704B7571220938707B5B7
:1045F0009843DC431D8F85A8B747122083D7A73087
:10460000B756122083D646C1D59F93064006B3D72E
:10461000D70259BF7BC93704B7571220938707B514
:104620009043D843B306C040B366D60AB307E04010
:10463000B367F70A63D9F602328735A0B75712205D
:1046400003A707B5B7571220938787C083D66700A3
:1046500083D78700D58F854663FDF600B7571220B4
:1046600083A747B53E97B757122003A587B53A955C
:104670008280B757122023AA07B4CDB7B7571220AC
:10468000938707B59043D843B306C040B366D60AB4
:10469000B307E040B367F70AE3C7F6FC3287E1B738
:1046A000A54763E1A70C411106C69387C19AB3479A
:1046B000F5209C438287EFF08FA9B24041018280B0
:1046C000B757122079157B15A5C093878749AA97FC
:1046D00003958700B747122083A747305D9DA167E8
:1046E000FD173345F502D1BFB7471220039707479F
:1046F000B747122083A7473011657F15F7C43D8562
:104700006DBFB747122003A587497B55C588EFF0D9
:10471000AFD665B7EFF0CFE54DB7374712208357D7
:10472000C73593E70710231EF734EF00507D71B7AC
:10473000B757122083D707C47BA11702B75712209F
:104740000395672EB747122083D7A7305D9D8967F1
:10475000938707713345F5028DB7B747122003954C
:10476000C756A1BF01458280B747122003D7A730A3
:10477000B747122023A2E730B747122083A7C749C3
:1047800093F7070881CFB757122003D587C1B757D2
:104790001220938707B5C8C788C38280411106C617
:1047A000B757122003D5E7C0E53DB75712209387CE
:1047B00007B5C8C788C3B24041018280B7471220FD
:1047C00083D7C735858BC5C7B757122083D727C175
:1047D0007BA31706B747122003D7A730B75712207D
:1047E00083D747C1D99F13074006B3D7E70237479E
:1047F00012202322F730B747122083A7C74993F727
:104800000710BDCBB757122003D587C1B747122079
:1048100083D7C735858B99CBB747122083A74730FD
:1048200063CCA708B307F0403365F50AB7571220E9
:1048300023AAA7B48280B757122003D707C18547A0
:1048400063F9E700B757122003D7E7C0854763FB3A
:10485000E700B757122083A707B53307F040336747
:10486000F70AADBFB757122003D787C185BFB74737
:10487000122083D7A730A5BF411106C6B757122013
:1048800003D507C1313DB747122083D7C735858B84
:1048900099CBB747122083A7473063CDA700B30752
:1048A000F0403365F50AB757122023AAA7B4B240E7
:1048B000410182803E85C5BF3E858DBF411106C640
:1048C00022C4B747122083D7E7303747122023206E
:1048D000F72EB307F04037471220232EF72C374727
:1048E00012208357C735C19B231EF734B7571220B8
:1048F000938707B523A0070023A2070023A407007E
:10490000B757122083D667C1A947B3F7F60233C65B
:10491000070811476360C7021387419DB3C7E720AB
:104920009C438287374712208357C73593E7470058
:10493000231EF734B747122083D7C735B18B7BA32B
:10494000C712B747122083A7C7357BD72782FBD76B
:104950003782B746122003D6C631B3A6E7206303D9
:10496000D614B746122005462390C6326306F700D8
:10497000B7461220239FC630B3A7E720374712203F
:10498000231EF730B747122083D7C73513F7170018
:1049900063010714B757122003D7E7C0854763FCAC
:1049A000E710B757122003D707C1854763FCE7100C
:1049B000653B2935A1AA374712208357C73593E7AE
:1049C000C700231EF734BDB7B747122083A7874916
:1049D0001397D700634B0700374712208357C7351B
:1049E00093E74700231EF734B1B7374712208357A8
:1049F000C73593E78700231EF7342DBFB747122032
:104A000083A787491397D700634B070037471220C6
:104A10008357C73593E74700231EF73421BF374735
:104A200012208357C73593E7C700231EF73419B701
:104A3000B747122083A787491397D700634B070016
:104A4000374712208357C73593E78700231EF73473
:104A5000D5B5374712208357C73593E7C700231EC4
:104A6000F734C9BDB757122003D727C3B757122051
:104A700023ACE7B4A547E3E6D7ECB75712209387FA
:104A800087C003D7670083D78700D98F0547E37AAC
:104A9000F7EA374712208357C73593E71700231EDD
:104AA000F73445B5B746122023900632B746122098
:104AB000239F0630D1B5193381450545EFF0DF97C7
:104AC0006531A9A0553185450545EFF0FF96FD31CB
:104AD00035A8918B89CBB757122003D7E7C08547FC
:104AE00063F9E70A5131B747122083D7C735A18B45
:104AF00091CFB757122083D727C1CDE3B7571220E4
:104B000003D707C1854763FDE7084D39B747122032
:104B100083D7C73513F7C7007B29C70813F74700AA
:104B200049CBB757122003A407B5B747122003A5F6
:104B3000072E63488500B747122003A5C72D3365AC
:104B4000A40AB747122083D7C735898B9DCFB757A3
:104B5000122003D7E7C0854763F9E702B757122051
:104B600003D707C1854763F2E7023747122083570F
:104B7000C73593F7F7F8231EF734B747122023A859
:104B80000736B747122023AC0736B2402244410112
:104B9000828081450145EFF03F8AA9B7F136B9BF60
:104BA00085450145EFF05F898DB7EFF03F9D2A8481
:104BB000ADBFA18BBDDBB757122003A447B5B5B776
:104BC000011106CEB757122083D5E7C34800EF5036
:104BD000C027B747122083D7C75F1808B3A7E720BD
:104BE00003D547FFB74712202393A72E374712203C
:104BF0008357C73593F7F7EF231EF73415CDB74723
:104C0000122003D7A730B747122023A2E730374737
:104C100012208357C735F99B231EF734EFF05FA8A6
:104C2000B7471220239507500147B7471220239416
:104C3000E750F240056182805131B75712209387C7
:104C400007B59443374712202315D75003D74700A1
:104C5000E9BF411106C6EFF0EFBFEFF0EFF23746C4
:104C6000122083570663374712202312072E374737
:104C700012208355C72E1387F5FF13371700260719
:104C8000C1669386F6C7F58FD98F2318F662B7579A
:104C9000122083D767C137471220231FF72E3747CB
:104CA00012200357C72F6306F700B747122023AA25
:104CB0000732B757122083D787C1374712200357CF
:104CC00007316306F700374712202318F730B7473C
:104CD000122083D70763918B99E37BC91508B747E7
:104CE000122023960752B747122083A787491397AC
:104CF0008700635A0700B7471220239C0734B74741
:104D0000122023AA0734B747122003D7E72FB7474B
:104D10001220239EE72EB747122003D78735B747C7
:104D20001220239DE72EB747122083D7E73037475D
:104D300012200327873263D1E70437471220232448
:104D4000F732B747122083A74749918B9DCFB747CA
:104D5000122083A7C749918B8DEBB747122003A779
:104D6000872DB747122023A4E73205A8913DB74706
:104D7000122023A4A73285BFB307F040E353F7FC0A
:104D8000374712202324F7326DBFB747122003A7FD
:104D90008732B747122023ACE72CB747122083A7EE
:104DA0008732374712202326F7323307F040B3E724
:104DB000E70A374712202312F752EFF00FB9B2403B
:104DC00041018280011106CE22CC26CA4AC82A841B
:104DD0000329C50004495049B757122083D727F546
:104DE0007BAE17041387E7FF699F854663FEE60ED7
:104DF000B747122083A607398322C404B3875640DD
:104E0000784C7F9727C503134402335E6740B31580
:104E10006E000D8F78CC032F0407832E4403634D5F
:104E2000DF17635BD01637571220835507F62547E7
:104E30006373B71801458145814FE9AAB74712202E
:104E400083A7C749139747016356070003298501C4
:104E50001051444DB747122083A6C749FBD6B682EE
:104E6000B747122083D7C7376381F606B7471220AA
:104E700083A507398328C4043385154133052503E9
:104E80003C48B387F840FB9737C078483387E54004
:104E9000BA97D19F0317640203184402634C0703B7
:104EA00033080741331505010318840263490703DA
:104EB0003308E840B3970701098F1D8F244CB39442
:104EC000E400FF951521B3C4B402B7471220239E16
:104ED000D73639BF3308E84033550541F1B73308B9
:104EE000E840B3D70741C9BF4EC652C47BA23708BA
:104EF000B707122093870703784198C7384598CBA6
:104F0000B747122003A70739B307E040B3E7E70A22
:104F1000370A122093090A0323ACF9005C4423A644
:104F2000F9001C4C23AAF90083A7090013050A0302
:104F3000829703A9C9011C4823A6F9005C4C23AA47
:104F4000F90083A7090013050A03829783A4C90106
:104F50005C4823A6F9001C5023AAF90083A7090086
:104F600013050A03829703A6C901B249224A49B52B
:104F7000B70712209387070323A40700374712209F
:104F80000357A73098CBB747122003A78734B3073E
:104F9000E040B3E7E70AADBF185C6354EF00E3C439
:104FA00006E8374712200357C735137707189305CC
:104FB0000018E30AB7E6374712200327C7491377DB
:104FC000070409CB37571220035707F6A945337753
:104FD000B70259EB93D5F44113D7F641459F7F971C
:104FE000D5C47F95D4F0BA950328040683284406D7
:104FF0007F1505C103186402130708FE634A0704FE
:1050000033D7E540BA8F331707013A889358F741F1
:105010007F1505C328D06CD0B38757403848BA975E
:10502000374712202324F73838547F17F6C4031665
:105030008402B357C7403396C700118F38D46359E1
:10504000F002585C6356F70223240406BA871DA0B9
:10505000939815007D4733070741B398E80033570D
:10506000050133E7E80079BF01458145814F5DB710
:1050700063C8070C37471220032787392DE34EC634
:1050800052C456C213D6F64193D5F4413307960263
:105090007F97D5C47F9AD4F0BA9A03186402130795
:1050A00008FE6348070A33D7EA409355F9413306AF
:1050B00026037F96D5C47F19D9F0B299930603FED3
:1050C00063C4060AB3D6D94036977A9738D837479B
:1050D00012208546232CD738B249224A924A3747B4
:1050E0001220032787397B2C1708374712200357D4
:1050F000C73513770718930600186307D708385881
:10510000344C369738D8385863DAEE0A2328D40757
:1051100023260406232E04042324040637471220E2
:105120002312C739374712202311F7393747122086
:105130002310F738F2406244D2444249056182802C
:10514000585C3307E040E3D7E7F223240406BA872C
:1051500015B793951A007D4733070741B395E500CE
:1051600033570A014D8F91B713961900FD46B38648
:1051700066403316D600B3566900D18EB1B7338777
:10518000CF013E9738CC95B7374712200327C73257
:105190006355E000344C63CE0600634907002326C4
:1051A0000406232E040423240406B1BF384CE3581C
:1051B000E0FE3858344C369738D8B1B7145CE35F0A
:1051C000D7F434D823260406232E0404232404060B
:1051D000B1B7B7561220938686C083D7063313978C
:1051E00007011306803E3357C7022207BE07130686
:1051F0004006B3D7C7029A07B3D7C7029A0783D628
:105200002633B3D7D702A1666360D712E146216681
:105210000583FD16E99EE37DC7FE36880316450229
:1052200063D4C600232E05042312D50258C5416756
:1052300063EEE70E6947416685837D17699FE3FD4D
:10524000C7FE3A86831565026358B7000143814360
:1052500023206506232275062313E5021CC9B755D2
:105260001220938585C083D7053383D84533B38710
:1052700017039A079548B3D717038E07930820039F
:10528000B3D717035CC9B1472314F50283D785331D
:10529000BE079308803EB3D717033CC183D8A5321D
:1052A0008D4563E41501D1073CC1B747122083D572
:1052B000C73593F7051063820716B747122003DE40
:1052C000E730B747122083D8A73063731E079317C0
:1052D000FE00B3C7170337531220035303C17B2CBF
:1052E00083045CD9B747122083DEC730F687375E68
:1052F0001220035EEEF3630A0E04375F1220035F91
:105300004FE37B241F04330FC041FA877B418304A2
:10531000858995CDB757122083A7C7B5636BDE0F7C
:105320003E9EB307C04125A0E146C5BD694711BFF8
:10533000A167FD174DB7B74E122083AE4E30E3D2B2
:10534000CEFBBE0EB3C71E0369BF7B2B830ABE070D
:10535000B3C717031CDDB757122083D727F4B565F1
:105360009385751BCD9FB9835CDDBD4763FCD70A70
:10537000B757122083D7C7F4C2079306803EB3D72E
:10538000D7024118B39707011CCDCD4763F7E70A51
:1053900037571220130787C083574734B786A300B7
:1053A000D59FBD8395669386061CD59FBD83311618
:1053B000B397C70003576734B3D7E7025CCD3757BD
:1053C0001220130787C08357473483568734D59FED
:1053D0009A079546B3D7D7028E0793062003B3D713
:1053E000D7021CD18357C734856693861683D59F11
:1053F00099877CC18357E734D59F99873CC58280C4
:105400008589B1D5B757122083A7C7B5B387FE40AA
:105410003DBFF697B307F0401DBFA167FD175CD9EC
:1054200081470DBFB757122083D7C7F4B397070141
:105430009306803EB3D7D70281BFB54763FBE7022F
:10544000B7561220938686C003D74634B787A30089
:105450005D9F3D8349163317C700B347E720B3E785
:10546000E7208E07998FBD8303D76634B3D7E70251
:10547000B1B737571220130787C0835747348607C1
:10548000B397C700896693860671B3D7D7020357CF
:105490006734B3D7E7021DB7011106CE22CC26CA66
:1054A0004AC84EC6AA84375712200357E7F29946D6
:1054B00063E1E6029387819EB347F7209C4382878E
:1054C000B7571220839707F3056713071783D99FF0
:1054D000998737051220130405051CC4375912207B
:1054E000130989C08357C933FB9757C01CC8A167EC
:1054F000FD175CC0DC405CC41C40130505058297A9
:105500005C44DCC00357A932A14763EEE7069387EA
:1055100041A0B347F7209C438287B75712207D17DD
:105520006D9F7B17A7C093878749BA97839787009A
:105530004DB7B74712208397074761BFB75712206F
:105540008397672E0D671307D746D99FB18751B749
:10555000B747122003A587497B55C588EFE0CFF1F7
:105560009317F500898F374712200357A730B3C729
:10557000E70285B7B75712207B17A7C093878749E3
:10558000BA9783998700A167FD17B3C7F90A374710
:1055900012200327C7397B29370E37471220232AC9
:1055A0000738370512201304050037571220035718
:1055B00067F47B1757C058C01CC41C401305050076
:1055C00082975C449CC4F2406244D2444249B2494E
:1055D00005618280B7571220938787498399870096
:1055E00083972701B389F94079BFB7471220839980
:1055F000074751BFB75712208399672E8D6793874E
:10560000D746B389F90293D9C940B5BFB75712201D
:10561000938787498399870083972701BE99A5B708
:10562000B757122093878749039727013D8783D96E
:105630002701B3493701B389E940039787003D87C4
:1056400083D78700B98F998FB3C90908E99FB3F948
:10565000F90A15BFB7571220938787490397270187
:105660003D8783D92701B3493701B389E9400397BF
:1056700087003D8783D78700B98F998FB3C9090801
:10568000E99FB3D9F90A01B737571220035727F614
:1056900031CFB746122083D60663858AA1CA9316F6
:1056A000F7003387E6409306803E3347D70263DF37
:1056B000E70237471220832647393757122003570E
:1056C00047F67B1727C363F8E600850637471220A5
:1056D000232AD738F9B53747122085462316D738FD
:1056E00037471220FD46231FD72A65BD37471220B2
:1056F0002316073837471220232A07385DB5411192
:1057000006C622C426C2B704122093878406A05B73
:10571000374712208357076393E707102318F76270
:1057200013858406953B13858406EFF09FAAB7572F
:10573000122083D767F67BA91700B747122083D7BB
:105740004763898B63800714B747122083A7C73943
:1057500091E7B7471220054723AEE738B747122035
:1057600083A7C7397BA91712B747122083A7C73968
:105770007BA32714B707122093878706D443984743
:105780003386E640B747122023A8C738B747122010
:1057900083A7C74937561220035646F3FBD73782F3
:1057A0006307F600158FB747122023A8E738B747DD
:1057B000122083A7C7397BA43714B7071220938719
:1057C0008706B84BF8CBF847B8CB3747122083266B
:1057D0000739F4C7B747122003A6C73919CAB74714
:1057E000122003D7C72FB747122083D7E72F6302B2
:1057F000F718B70712209387870623AE07040145E1
:105800008145A8D3ECD323A4070623A60706B70730
:10581000122023A60702B747122083D707326381DD
:10582000071CB747122083D7E73163950716B75790
:10583000122003D7A7C1B747122083D74763FBD7EE
:1058400067823D8F06078547998F37471220035798
:10585000C7357B5787823307E040F98F37471220DF
:1058600003274734B755122083A5C5B50D8FD99F9F
:105870001397F7001D8FB747122083D7A730334700
:10588000F70295AAB747122023AE0738B747122070
:1058900023AC0738E1B5B747122083D7E737E39544
:1058A00007ECB7471220094723AEE738B747122065
:1058B00023A0073A55BD374712208327073A8507AB
:1058C0002320F73A375712200357A7F57B1757C005
:1058D00063E7E700B74712200D4723AEE738B75715
:1058E000122083D787F51394F7001D8C9307803E11
:1058F0003344F402B707122023AC870CA5BDB74789
:10590000122083A7874913979700E34807EAB74710
:10591000122083D70763918BE39107EAB7471220E0
:1059200003A70739B307E040B3E7E70A37071220B8
:105930000327870AE353F7E8370512209304850607
:105940009C40130585068297370412201304040037
:10595000B757122083D787F4FB9757C05CCCBC584D
:105960001CD01C4C3705122013058501829740502E
:10597000A9B5B747122083D7A72F99C7B7471220D9
:1059800083D78735E38707E6B747122083D70732E7
:10599000B5CB85B5B757122003D7A7C1B74712209B
:1059A00083D74763FBD767823D8F06078547998F6B
:1059B000374712200357C7357B5787823307E040AC
:1059C000F98F3747122003274734D99F1397F700E1
:1059D0001D8FB747122083D7A7303347F70221A87E
:1059E000B757122083D787F51397F7001D8F9307BA
:1059F000803E3347F702B707122093878706B8DB4C
:105A0000F4CBB4CB63460402B747122083D7A73048
:105A100011657F9587C4A167FD173345F502B74728
:105A20001220239FC736B240224492444101828013
:105A3000B747122083D7A73071757F9587C4A167B8
:105A4000FD173345F502E1BFB7571220938787C092
:105A500037471220035767522396E77237471220C1
:105A6000035747522397E772374712200357A73E41
:105A70002398E772374712200357A7512399E772FB
:105A80003747122083568751239AD77237471220FF
:105A90000357673E239BE77237471220035767512E
:105AA000239CE77237571220032707521317F74832
:105AB000239DE7723747122003570748239EE7725A
:105AC000375712201307874903564700239FC77291
:105AD0000356E7002390C774035687012391C774C8
:105AE00003D6A76D2392C77403D6C7362393C77412
:105AF00037461220035626512394C7743746122086
:105B00000356E6512395C774374612200356C651F3
:105B10002396C77437461220035686352397C774D9
:105B2000374612200356E6502398C7743746122092
:105B30000356C6502399C774374612200356265D74
:105B4000239AC7743087239BC7740356C700239CCE
:105B5000C77403576701239DE77437471220035723
:105B60004746239EE77437571220130707A00356B2
:105B7000A700239FC774035787002390E776374712
:105B800012200327C7462391E77603D7E76D2392B8
:105B9000E776374712200357473D2393E776374789
:105BA00012200357A7502394E77637471220035754
:105BB00087502395E776374712200357474E2396A1
:105BC000E776374712200357673D2397E776374735
:105BD00012200357A7442398E7763747122003572C
:105BE00087682399E776374712200357A73C239A03
:105BF000E776374712200357873D239BE7763747E1
:105C000012200357873C239CE7763747122003571F
:105C1000676D239DE776374712200357476D239E14
:105C2000E776374712200357472B2393E778374708
:105C30001220035767402394E7782395E77823964B
:105C4000E7782397E778374712201307074C108728
:105C50002398C77830872399C77803564700239A3B
:105C6000C77803576700239BE7783747122013074D
:105C7000474B1087239CC7783087239DC7780356EE
:105C80004700239EC77803576700239FE77837476D
:105C900012200357273C2390E77A374712200357F7
:105CA00007522391E77A374712200357275223924E
:105CB000E77A374712200357C7612393E77A3747BC
:105CC00012200357A72B2394E77A37471220035754
:105CD000A7682397E77A05673E970356C7802398FE
:105CE000C77A0357E7802399E77A3747122003578B
:105CF0008756239AE77A3747122003576756239B24
:105D0000E77A6D9F7B17C7C3130640063347C70268
:105D1000374612200356E6563347C702239CE77ADC
:105D2000B757122093878747988783D7670063E523
:105D3000E700A947B3D6F602B7571220938787C06A
:105D4000239DD77A05673E9703578780239EE77A7E
:105D5000374712200357874D239FE77A3747122092
:105D60000357673B2390E77C3747122003570762AE
:105D70007B5797841377F70F2391E77C37471220DF
:105D80000357473B2392E77C8280B76712209387B3
:105D9000C704374712200357C762988F374712202E
:105DA000035787622391E700374712200357275B89
:105DB0002392E70037571220130787551487239340
:105DC000D700B746122083D6A6402394D700B74603
:105DD000122083D6466D2395D7008356470023961D
:105DE000D700835667002397D7000357870023986F
:105DF000E70037571220130787C08356E70E239911
:105E0000D7008356A728239AD7008356C728239BF9
:105E1000D7008356E728239CD70003570729239DE3
:105E2000E7008280411106C6B7671220938787EC8E
:105E30003747122003574762988F3747122003577E
:105E400087402391E70037571220130787C08356F6
:105E500047012392D7008356E7012393D700B75613
:105E6000122093868655B0862394C7003766122089
