:020000040800F2
:100000006F00004C820410208204102000000000C9
:1000100082041020820410208204102000000000BE
:1000200082041020820410208204102082041020F8
:1000300082041020820410208204102082041020E8
:10004000000000008204102082041020820410208E
:1000500082041020820410208204102082041020C8
:1000600082041020820410208204102082041020B8
:1000700082041020820410208204102082041020A8
:100080008204102082041020820410208204102098
:10040000820410208204102082041020B7070D40BF
:1004100003A747F0B7970F40938747209C43935615
:10042000C7018D8AA9CE93F7071095E3B7F70C4063
:100430001D4723A2E770B7F70C4023A0E77037F7FA
:100440000C40130747701C439D8BFBCE77FEB7F71C
:100450000C40214723A2E770B7F70C4023A0E770B8
:10046000A96793877709FD17FDFFB7070D4003A71D
:1004700047F01317C7491317D74923A2E7F0828023
:10048000828000000000000000000000000000006A
:10049000000000000000000000000000000000005C
:1004A000000000000000000000000000000000004C
:1004B000000000000000000000000000000000003C
:1004C00073700430E16773A00730732540F1137532
:1004D000F50F8145631DB512153F970112189381E1
:1004E000E159174212181302E21B17811218130167
:1004F00061B19302002073A0027D1705000013056F
:1005000065B0970510189385E5AF17061018130608
:1005100066F0630CB50063FAC5008322050023A0D2
:10052000550011059105E3EAC5FE97021018938264
:1005300062AD73907230970210189382A2ED73909F
:10054000C27E73E0C07E970200009382A213739074
:1005500052309302F00373B0523073E0513099621D
:1005600073B00230896273A0023073F00232175701
:10057000020013072787975702009387E788637263
:10058000F70208434C4310473107E30AB5FE65DA2A
:100590008322050023A05500110591057D166DFAF3
:1005A000F9BF175702001307E78797570200938791
:1005B000E788637CF7000843504321077DDA232056
:1005C000050011057D1665FEEDB78D2D174502005E
:1005D0001305C5D9EF307250EF307251D520EF00BE
:1005E000C07F970200009382E25D739052309302C5
:1005F000F00373B0523073E05130A14273A0027D1A
:10060000413501458145EF20D256EF005008730077
:100610005010F5BF9302F00373B0523073E05130C5
:10062000B70202E1A3850200194323806200B712DA
:1006300002E1238002040943238162040543A3806D
:10064000620473005010A380020423800204370563
:1006500080100295C1B713000000130000001300C2
:10066000000013000000130000001300000013003E
:100670000000130000001300000013000000010040
:1006800073005010F5BF00000000000000000000E3
:10069000000000000000000000000000000000005A
:1006A000000000000000000000000000000000004A
:1006B000000000000000000000000000000000003A
:1006C0008280000000000000000000000000000028
:1006D000000000000000000000000000000000001A
:10070000AA872E8563C4F50033E5C70A8280376760
:100710000C405C47BD9B5CC7B7660C409C4A93F796
:10072000F78F9CCAB7670C409047131646491316BB
:10073000564990C750471316C64850C790471316DE
:1007400006491316164990C737660C400C4EE199BE
:100750000CCE904A619A90CA90471376F6EF1376C2
:10076000F6DF90C737660C404C4A93F505E04CCA5B
:10077000904AE575FD156D8E90CA94479396C648CC
:100780009396D64894C79447F99A94C7944793F69A
:10079000F6F894C75C47939747495CC7B7670C4026
:1007A000D853619BD8D3B7670C40D84F419BD8CF63
:1007B00082809D67938737121CCDA1679387A7120C
:1007C0005CCDB167938717EE1CCD5C4993E71700AA
:1007D0005CC982809D67938737121CCDA167938780
:1007E000A7125CCDB167938717EE1CCD5C49F99BCE
:1007F0005CC98280B7670C4098471367074098C769
:100800009847131747291317572998C7B7660C40FD
:10081000D84613670701D8C6D8461317C728D8C6C5
:1008200037670C40104B1366760010CB104B1366E5
:10083000067010CB90471366160090C7904713665A
:10084000060790C790471366063090C79047131667
:10085000C6281316D62890C79047B70503004D8EBB
:1008600090C7DC4693974729DCC61C4B9D66D58F05
:100870001CCBB7670C40D44B93E6F61FD4CBB767BD
:100880000C40944F93E6760094CFB7670C40D44F5A
:1008900093E6F600D4CFB7670C40D45393E67600C6
:1008A000D4D31C4BCD8F1CCB8280B7670C4003A7E1
:1008B000C710137707E023A6E71003A7C710136735
:1008C000F71F23A6E710B7670C4003A70711619B2A
:1008D00023A8E71003A707111367770023A8E710E1
:1008E00037670C4083278710E576FD16F58F2324A4
:1008F000F710832787109D66D58F2324F710B767DD
:100900000C4083A6C711E19A23AED71083A6C71166
:1009100093E6760023AED710B7670C4083A6471145
:10092000C19A23AAD71083A6471193E6F60023AAFB
:10093000D710B7660C4083A746109397474923A268
:10094000F61083A746109397472923A2F610B7679E
:100950000C40938707109043799A90C39043136695
:10096000160090C390431376F6EF1376F6DF90C32C
:1009700090431366063090C38C433706FDFF7D1607
:10098000F18D8CC38C4337050300C98D8CC38C4318
:100990009395C5489395D5488CC38C439395C528AA
:1009A0009395D5288CC38325871093F5F58F232441
:1009B000B7108325871093E505702324B71083258E
:1009C0008710E1992324B7108325871093E57500DC
:1009D0002324B71083A54610BD9923A2B61083A582
:1009E000461093E5050123A2B61094439396464919
:1009F0009396564994C394439396462993965629C1
:100A000094C383278710F18F2324F710832787103F
:100A1000C98F2324F7108280B7670C4023A80702F0
:100A2000B7670C4023AA07028280797106D622D4C8
:100A300026D24AD04ECEB7970F403EC49387074088
:100A40003EC61309F5FFB7274E0E9387F7BF33B99C
:100A5000270125092400FD5980402285A53B1C481B
:100A6000F99B1CC85C4093F707FCB3E727015CC007
:100A70001C4893F7F7DF1CC8232234052285153B59
:100A8000010001000100010001000100010001005E
:100A900091041C08E392F4FCB2502254925402597F
:100AA000F24945618280411106C6B7970F40D107D0
:100AB0009C43858B89CB37254E0E130505C0B53772
:100AC000B2404101828037950F40E531EDB74111C9
:100AD00006C697001018E7802029B747122003A701
:100AE000076A0DCFB79700409387278D9315B028DD
:100AF000379601401306268D31A0058305C3AE97B6
:100B0000638EC70093761700EDDA948793E656005C
:100B1000948F948793E65600948FC5B7B2404101F5
:100B20008280B787004003A707331367170023A805
:100B3000E7328280411106C6854537850240EF4085
:100B4000426585453785024013050520EF40626404
:100B500085453785024013050540EF408263B2406A
:100B600041018280411106C6114789460946B735C1
:100B70003101938505D037459C1C130505808921DB
:100B8000B24041018280411106C65136393BB7E778
:100B90000C400547F8D74935EF40A2412937D937EE
:100BA0009139EF40E2292537AD3F6937EF40226E9A
:100BB000B2404101828000000000000000000000FF
:100BC0005D7106C012C216C41AC61EC82ACA2ECC2F
:100BD00032CE36D03AD23ED442DC46DEF2C0F6C245
:100BE000FAC4FEC673D0E57E7350F67E73D0B67E2F
:100BF000732520348A855920D2527390427CC25288
:100C000073901234B2527390223482401242A24244
:100C10003243C2435245E245724682561257A257AA
:100C20006258F258064E964E264FB64F61617300D9
:100C3000203000000000000000000000B7B7C4042E
:100C40009387074037071220232CF7268280828063
:100C50008280411106C6B7571220938747CC88C3BC
:100C6000F326907CD4C3F326103494C7F326303493
:100C7000D4C78CCB9841D8CBE13F01A0411106C627
:100C800022C426C24AC02A842E8993144501D180E9
:100C90007D3F9357440093F7F70F9DE3B75712201A
:100CA0009387C7CDB3C4F4209C4081C7CA852285F1
:100CB00082970145B2402244924402494101828018
:100CC0008567FD176387F400B7170008938727C56A
:100CD000E9BFB757122083A7C7D1C1BFB7571220AA
:100CE000938707CBD843A3050700D8435843D04385
:100CF000148293F6160E148AD04314829357470138
:100D0000F98BD58F1C8ACD47B7561220938606CB18
:100D1000056613053010D84233C7E72032972C837D
:100D200093F5950F2C8BD84233C7E72032972C834D
:100D300093E525002C8BD84233C7E72032974C83AC
:100D400093F5E50F4C8BD84233C7E72032970C83DD
:100D500093F5E50F0C8B8507E39FA7FA01473756FC
:100D60001220130606CB85654D455C42B347F7203C
:100D7000AE97D48393F6E60FD48B5C42B347F7204B
:100D8000AE97948393F6E60F948B0507E31FA7FCB9
:100D9000828039C1F32720FC1397F70063580702BC
:100DA000F327707F93F707C01CC1370702003E97F7
:100DB00058C1370703003E9718C5370704003E9710
:100DC00058C537070500BA971CC98280B707000CC1
:100DD0005CC1B70700021CC58280411106C622C44F
:100DE000732440F11374F40F2DC0735040BC736032
:100DF000027C7360127C7360A47CB707040073A04C
:100E0000A77C7360087C7360187C9307001073A044
:100E1000A77CB707200073A0A77CF32720FC93F7DB
:100E2000072099C373E0A07CF32720FC93F70740C9
:100E300081C7C16773A0A77C0F00F00F0F100000DF
:100E400019C8B2402244410182803755122013054F
:100E500005CB813759BFB7373101938707D03707A3
:100E60001220232CF726B75712209387C7CD9386DD
:100E7000070437170008130727C598C39107E39E97
:100E8000F6FEB757122023AEE7D0893D5DBF01A023
:100E9000B7571220938707CBDC433345F52085678E
:100EA0003E955C8193E717005C898280B7571220DA
:100EB000938707CBDC433345F52085673E955C81FE
:100EC00093F7E70F5C89828037571220130707CB0F
:100ED0005C439C838583BD8B58435843A1CF558386
:100EE0003D8B3357F70AB7581220938808CB83A756
:100EF000480013080540B347F820F483B317E028EF
:100F0000FD1793F7F70F93F5F50FB3D7B70AA14580
:100F1000998DB397B700B396E60093F6F60F33D7E3
:100F2000E640D98F93F7F70F03A748003348E8202E
:100F3000A301F80037571220130707CB5C439483B3
:100F4000858293F7F6005843584355839375F7000D
:100F500063F0B706B7561220938606CBD842130526
:100F600005403347E52078831377F70F2148B3080E
:100F7000F840B387F540B317F028FD1793F7F70F44
:100F80001376F60FB3D7C70A3308B840B3970701F3
:100F900033571741331717011306F00F3356B64076
:100FA000518FD98F93F7F70FD8423345E5207C89CD
:100FB0008280B3D5C502FD15E99D2314B50082805A
:100FC000797106D622D426D24AD04ECE52CC56CAF9
:100FD0002A842E8AB2893689BA84B7E70C4023A4C2
:100FE00007001305600997101018E78000B537E770
:100FF0000C405C43F99BF59B93E717005CC337E714
:101000000C40C167FD171CCF37E70C401CCB37E7FE
:101010000C405CCBB7E70C40854A23AE5701130563
:10102000600997101018E78040B197101018E780FA
:10103000E0B1B7E70C4023AA5723B7E70C4023A839
:101040005723B7E70C4023A05721130560099710D9
:101050001018E78080AE896793870771B356FA024C
:101060003355F40293151500B7C798009387F7D846
:10107000054663FD47019307401FB3F7F602B9E742
:10108000B16693860635B356DA021546B6872E87C3
:101090003E88B377F7024287E5FF33D70503559FB4
:1010A000BD679387F7A563F0E70433D8060393077A
:1010B000100363E107059D47054763FF0703130717
:1010C00068003357F7023358E8023DA09307C01277
:1010D000B3F7F6020546DDFB9D6693860653B356CD
:1010E000DA020D4665B73D681308F8A52E98335807
:1010F000B80275BF1D471D486365E800BA8742877F
:101100003E88B3070703CD9FB3D6D702DD7593851D
:1011100035D8BE95B7D802009388288E63E2B80A06
:10112000B3D7E702B3D707038583631DF508B7E795
:101130000C4023A8D72093176600D98F0E08B3E779
:10114000070137E70C402326F720B7E70C4023AA16
:101150000720B7E70C40094723A4E7208147638BAA
:1011600007105AC8131B1400B79798009387F767A6
:1011700063F747195EC662C466C2B7C7C9019387E1
:10118000F73763F3470513561A00094CB747C323D3
:101190009387F75F854A63E6C700B30AFB00B3DABB
:1011A0006A039307100363E457039D47854C63F27A
:1011B0005703938C6A00B3DCFC02B3DA9A0311A8DC
:1011C000FD5771BFFD5761BF5286054CC1B79D4C9D
:1011D0009D4A63E59A01E687D68CBE8AB38B5C0391
:1011E000B38B6B03814613958B0193D58B00EF2056
:1011F0005255B7F7A5E99387F743BE9BB757C76C1E
:101200009387E7A363EF770F13578501B7E70C4088
:1012100023A8E72093176C00B3E797018E0AB3E782
:10122000570137E70C402326F72022052181B7E735
:101230000C4023AAA720B7E70C4023A4072081472E
:10124000B24B224C924CF9C3335B4B03B7E70C40D3
:1012500023A86721B7E70C401307900423A6E720D3
:10126000B7E70C4023AA0720B7E70C40094723A49F
:10127000E720424BB7E70C40054723AEE720B7E72E
:101280000C4023A00722B7E70C4023A207222945E0
:1012900097101018E780608AB7E70C4023AA07224E
:1012A000294597101018E7804089B7E70C4023A024
:1012B00007201305600997101018E7800088B7E72A
:1012C0000C4023A8072237E70C401307C7231C4311
:1012D000858BF5DFB7E70C40054723ACE7227BA6FB
:1012E0004906914763E637037BAC19027BC62906A2
:1012F000B7E70C4015671307575598CB3DA0FD572E
:1013000099B7FD57B24B224C924C35BF424B9DB71B
:101310007BC48904B7E70C401307101098CB31A0A9
:10132000B7E70C4041677D1798CB7B2A4906914768
:1013300063EA27037B2019047B4A2906B7E70C40A0
:10134000156713075755D8CB1DA8B7E70C4005679D
:101350001307171198CBD1BFB7E70C4041677D1732
:1013600098CBE1B77B448904B7E70C401307101012
:10137000D8CB31A0B7E70C4041677D17D8CB7BA114
:10138000440C914763EA97027BA014047BC1240CB0
:10139000B7E70C4015671307575598CF1DA8B7E757
:1013A0000C40056713071711D8CBD1BFB7E70C4026
:1013B00041677D17D8CBE1B77BCB8408B7E70C40FA
:1013C0001307101098CF31A0B7E70C4041677D1785
:1013D00098CFB7E70C400547D8CFB7E70C4098C780
:1013E0001305600997001018E7802075B7E70C40D7
:1013F00023A60700B7676202938707A03354F4025D
:101400001307E4FFE54763E4E7029307F4FFEE0701
:10141000370700087D1733178700B7060008F9164D
:10142000758FD98F93E7170037E70C401CD7B25060
:10143000225492540259F249624AD24A456182804A
:10144000B7E70C4005671307171198CF59B7B7E7EF
:101450000C4041677D1798CFADBF011106CE22CC5D
:1014600026CA4AC84EC652C42A84031985004209B6
:101470008319A500C2090315E5008317C40083552D
:1014800084019105B7040080FD14B3D5B440330640
:10149000B0405D9DEFF0CFA6835784019107331ACA
:1014A000F500031504018317C4000357A401B3D545
:1014B000E4403306B0405D9DEFF08FA48357A40154
:1014C0003315F500635249051C40635FF00213D7E2
:1014D00087400507998F1CC001451C403E9508C0F8
:1014E0004E86CA855295EFF0AFA148C04E86CA8598
:1014F0000840EFF0EFA008C0F2406244D2444249F5
:10150000B249224A05618280E3593AFD1C40E3D684
:1015100007FC13D787407D17998F1CC0014575BF05
:10152000411106C622C426C22A8408419356F541B9
:1015300058489357F7413386E6027F96A7C47F1732
:10154000A7F0B297939447013183D98C6357A004D5
:101550004C44858DB3E5050A1048184C9357F74164
:10156000D99EFF96A7C47F18A7F0B6989397080155
:10157000135708015D8F08443A9508C4EFF04F985F
:1015800008C4269548C010484C44EFF06F9748C0F7
:10159000B24022449244410182801048058E334675
:1015A000060A4C445DBF3387A540638FA500599E52
:1015B0009357F640ED9F99E7132717003307E04054
:1015C000936717003E956D9D82807486860613880A
:1015D00016005C86AA97216733470703D99F054702
:1015E000158F3E07334707034D9FB385E7408317A9
:1015F0004600BE9593D7F5401397F700998D2312B7
:10160000B600088E139557608280411106C622C429
:101610002E84B7471220239A076C8545EF10907CE3
:10162000B7071220938787013325F5200885B75720
:10163000122083D787F31C8CB24022444101828060
:10164000411106C6EF10A053B707122093878701F8
:101650003325F5200885B24041018280411106C63C
:1016600022C437541220130404FE3336C000231D55
:10167000C400B7471220239A076C0546EF1080710B
:10168000B7071220938787013325F520231D040017
:101690000885B240224441018280011106CE22CC4D
:1016A00026CA4AC84EC6AA842E89B2890546493F31
:1016B0002A8409C92285F2406244D2444249B2498F
:1016C000056182804E86CA852685493FE5B70111AE
:1016D00006CE22CC4AC84EC656C25AC02A892E8B84
:1016E000B289B68A1DC226CA52C4AE84332AB62035
:1016F0002A8405468C842285A1371DE989040504C6
:10170000699CE39844FFD244224A638109025A84C7
:10171000B3A9692156860C844A85893709040509CD
:1017200033490908E31834FF014529A04E8519A063
:10173000D244224AF24062444249B249924A024BA0
:10174000056182801DCA011106CE22CC26CA4AC874
:101750004EC62A89B6892E84B324B6204E860C84C0
:101760004A85F93D01E50904E31A94FEF24062441A
:10177000D2444249B249056182803285828015CACD
:10178000011106CE22CC26CA4AC84EC62A89B6897D
:101790002E84B324B6204E860C844A85C1350904B4
:1017A000E31B94FEF2406244D2444249B2490561CF
:1017B0008280828015CA411106C622C426C24AC050
:1017C0002A84AE842A963349060822850504699C3A
:1017D000A68589041D3D19E1E31989FEB240224422
:1017E0009244024941018280014582808280B7474C
:1017F000122041472393E778B74712200947239BDC
:10180000E76E8280411106C601469945096571352A
:10181000B24041018280B747122041472393E778C5
:10182000B74712205147239BE76E8280B7471220AB
:101830002392076AB747122083D7277891C7B74703
:10184000122005472392E76AB757122083D707B0C3
:10185000858B89CB374712208357476A93E7270048
:101860002312F76A8280011106CE22CCB707FF81CE
:101870009387F70F1375F5032205C98F3EC03D44CA
:101880008A852285EF2090737D14699CFB4AA4FE13
:10189000F240624405618280411106C622C426C21C
:1018A0004AC02A89AE843D444A86A685228597F09F
:1018B0000F18E78080EB01CD7D14699CFB46A4FEE8
:1018C0000545B24022449244024941018280374793
:1018D00012208327C76A85072326F76ADDB701111F
:1018E00006CE22CC26CA4AC84EC69374F503A2047B
:1018F0009394F42979443709FF1F1309F90FDD493F
:101900004A86A68513650404EF20507C7D14699CEB
:10191000E31834FFC1779387F70FFD8C370400E29B
:101920007D14E18CB707001CDD8C3706FF01130620
:10193000F60FA68513057005EF2050793706FF1FB7
:101940001306F60FA68513056005EF203078E18CAD
:101950009394B4299394C429370600017D1693E526
:101960000400939585295545EF205076F240624456
:10197000D2444249B24905618280411106C622C45F
:1019800026C2AA842E85EF2090162A847B28250063
:101990002285B240224492444101828093F4F403B0
:1019A0002685D1352685253FE5B7B747122083D751
:1019B000676C7BCD2722597186D6A2D4A6D2CAD015
:1019C000CECED2CCD6CADAC8DEC6E2C4E6C2EAC0FF
:1019D0006EDEB7541220938444DFB75912209389E6
:1019E00049D437591220130949E1375A1220130AF2
:1019F0004AD70144B75A1220938A4AE1416C7D1CB0
:101A0000376D1220130D8D92B76712209387873898
:101A10003EC689A0B747122003D7276C9307C00C96
:101A2000631FF70085479C8C19A8CE8D83D70900CA
:101A30008507E99F2390F900860763DCE704A68CFD
:101A40009C84CDE70504890489092109210AC1473D
:101A5000630FF416228BB3675421FC836389071646
:101A6000CA8B83574900E38787FB13971701458388
:101A7000ED9FE3CC07FA83D709008507E99F239000
:101A8000F9008607E3CDE7FA85479C8C239009008F
:101A90007DB7B75C1220938C4CE1B36C942103C6E4
:101AA0002C002C0803550900313303C72C001DC737
:101AB0003C089305F7FFE99D1307A101B3A5E520B5
:101AC0005287908714876317D60089070907E39A1E
:101AD000B7FE29A089479C8C23900D009C84A5F318
:101AE00083D70D00FD172390FD0091BFB36D5B21DF
:101AF00003C62D002C0803D50B006D3983578101D7
:101B00002313F1028357A1012312F1028357C1016C
:101B10002315F1028357E1012314F10283D76B00EF
:101B20002300F102A1832301F10283C63D00835704
:101B30000D3E93F7F703958F93B71700E20702570F
:101B400013178749D98F3ED083578D5B89CBB24716
:101B500083D7470089C78257939787293ED0A30030
:101B6000D102370700E27D178257F98F9397B72983
:101B70009397C7293ED0B3675B21AC831306803EA1
:101B800086050810113BE31F05EA83D70C007BA7ED
:101B9000270023900C00239009006DB5B757122041
:101BA000938747E1336BFB2003472B007DD33C0831
:101BB0001306F7FF699E1307A1013326E62052871B
:101BC0009487148F89070907E39CC7FED9B7B650DD
:101BD000265496540659F649664AD64A464BB64BA1
:101BE000264C964C064DF25D656182808280B74737
:101BF000122083D7676C7BA327008280011106CE59
:101C00003C81A2071881BA97035765002314E100AD
:101C1000035745002315E1000357A5002316E100F3
:101C2000035785002317E1000356C500814605824E
:101C30002C0033C50708613CF240056182801C41DD
:101C400013977700635A070E411106C622C42A84EF
:101C5000B747122083D7676C7BAC270C8357C5002E
:101C60007BC8470C0357450061C7835665009567DD
:101C7000938707E263EED70AB767122083D78738C6
:101C8000C5EBB7471220239AE76AB7471220239B78
:101C9000D76AB747122023AE076AB7471220239CA2
:101CA000076AB7571220938707D223900700239122
:101CB0000700B7571220938747D4375712201307CE
:101CC00047DF938607022390070023100700890748
:101CD0000907E39AD7FEB747122005472393E76C1D
:101CE0003136B747122083D7476B5C88B74712203D
:101CF00083D7076B1C881C40939787491CC0C1473A
:101D00003C88B70712209387070098872313E400C5
:101D1000B8872312E40003D747002315E40083D7D4
:101D200067002314F4001306803EA1452285AD36DA
:101D3000B240224441018280828083576500FD17B2
:101D4000E99F09476360F7048A07E99F3707122074
:101D500013070700B3A6E72094862313D500B3A684
:101D6000E720B4862312D500B3A6E72083D6460029
:101D70002315D500B3A7E72083D767002314F50008
:101D800001458280094582803C8113F707074DE7B2
:101D9000011106CE22CC2A84034665001147636FE9
:101DA000C700834675001307500F6369D7000357B8
:101DB000850009C70357C5007B2B87008357C400E4
:101DC00015457BA98706F24062440561828026CAD8
:101DD00093F4F7072C0003554500E93A0DE138006C
:101DE000B7571220938747D7B3E7F420100814871A
:101DF000FD16948F09078907E31BC7FE11A00D4547
:101E000015ED03477400B7571220938747E1B3E7F6
:101E1000F420F88B03476400B88B03574400988F75
:101E20000357A4002393E700035784002392E7009D
:101E3000D24451BF0D4541BF09458280D24461B7AC
:101E40008147B7561220938646E1414633E7D720B3
:101E5000A30107008507E39BC7FEB75712209387AE
:101E600047D623900700239107002392070023936E
:101E70000700239407002395070023960700239764
:101E8000070082803C853D476368F7023757122080
:101E9000130747E1B3E7E720F8837889B8833889E7
:101EA0009887188D03D767002313E50083D7470071
:101EB0002312F5000145828009458280B757122020
:101EC000938747D603477500988F03476500239192
:101ED000E700034755002392E7000347450023939B
:101EE000E7000347B5002394E7000347A5002395C7
:101EF000E700034795002396E700034785002397F3
:101F0000E70082801C4113977700635C070841114A
:101F100006C622C42A845C8181E73C817BC5170602
:101F2000B747122003D5676C7B4F15043C8013978D
:101F30004760634E07007BAC37044147638EE7047C
:101F400081457BC91700ED3D0145814521A02285D2
:101F5000253D81455C8085CB1C805C88B74712207D
:101F600083D7076B1C881C40939787491CC019C5F1
:101F70009307F0073C882313A40089451306803E8D
:101F80002285EFF07F91B240224441018280130507
:101F90004400CD3DA1457DBF22850D3701458145DA
:101FA00055BF82803335A0000505B7471220239323
:101FB000A76CB7571220938747D4375712201307BF
:101FC00047DF938607022390070023100700890745
:101FD0000907E39AD7FE8280B747122023AE076A2B
:101FE000B74712201307C00C2391E76C82800111C0
:101FF00006CEA3000100B747122083D7076B23004A
:10200000F1008247939787293EC095472301F1004D
:10201000370700E27D178247F98F3707000ED98F07
:102020003EC01306803E81450A85EFF0FF86F240F0
:1020300005618280011106CEB747122083C7076B66
:10204000A300F1002300F1008247939787293EC047
:102050008D472301F100370700E27D178247F98F92
:102060003707000ED98F3EC01306803E81450A8592
:10207000EFF09F82F24005618280B757122083D72C
:1020800007D2A5CF411106C622C426C20144B754C7
:102090001220938404D215A09305A400B3279420A2
:1020A00081460546B3A5952003D54700EFF02FE202
:1020B0000504699C9C846375F402BC84B3D787488B
:1020C000E1DF9305A400B327942081460946B3A518
:1020D000952003D54700EFF08FDF0504699CC9BF49
:1020E000B7571220938707D2239007002391070048
:1020F000B2402244924441018280B7571220938714
:1021000007D223900700239107008280B75712203F
:1021100083D607D291CE938707D2B3A6F62003D7F2
:1021200047006309A7008907E39BD7FE0545828026
:102130000545828001458280411106C622C426C21F
:102140004AC02A89AE843284D13721C5B7571220BC
:1021500083D707D21D476367F700850737571220DB
:102160002310F7D201CCB7571220938707D2948758
:10217000FD16B8873317D7282391E700B7571220E9
:10218000938707D29887B326F720239126012399B6
:102190009600B240224492440249410182801C418F
:1021A00013977700635A0716011106CE22CC26CA70
:1021B0002A848357C5000D47636BF70034811307EA
:1021C000200291459544639AE610639307103C8082
:1021D000F11793F6F70F7947636FD70E1387C18412
:1021E000B3C7E6209C43828791458144FDA05C8073
:1021F000638D071005469305640003554400EFF016
:102200006FDBAA848357C4007BC3870019C1914543
:10221000E9A005469305A40003558400EFF08FD98B
:10222000AA84933515008A05910545A84AC8130963
:10223000640085460546CA8503554400EFF08FD0FB
:10224000AA84914561E98357C4007BAC8700854629
:102250000546CA8503554400EFF06FD2A685424972
:10226000ADA84EC69309A40085460546CE85035504
:102270008400EFF02FCD11C5AA8491454249B2499F
:10228000A9A885460546CE8503558400EFF02FCFDB
:10229000B24975BF5C80B5CB22854534AA84A1457F
:1022A0002DA8854605469305640003554400EFF0CC
:1022B0006FC9AA84914515E1014683556400035511
:1022C00044009D3DA68511A84D3B9145814431A018
:1022D0009145954419A0914585445C809DC71C801B
:1022E0005C88B747122083D7076B1C881C409397E4
:1022F00087491CC091C4FD573C882313940089452D
:102300001306803E2285EFF02FD9F2406244D2447A
:10231000056182804249D1B78280B747122023905D
:10232000076CB747122023AE076AB7471220239CD9
:10233000076AB767122083D7873889E7B747122023
:102340002393076C8280B747122083D7676B638023
:102350000710374712200357676C630A070E0111F5
:1023600006CEB746122003A7C66B050723AEE66A62
:10237000FB9697C15146B3D6C60263E0E602B74664
:10238000122003D7866B0507699F239CE66A858325
:10239000637BF700F24005618280EFF04FC5EFF0FC
:1023A0006FC6A53FC5BFEFF06FC8B7671220938710
:1023B000879203C7073E9376F7032300D100B74601
:1023C000122083D6466BA300D10083D7875B85CBD1
:1023D000B767122083D7C7389DE351072300E10078
:1023E000B767122083D7673B81EB374712208357AB
:1023F000476AF99B2312F76AD147A300F100894786
:102400002301F100824793978729370700E27D1760
:10241000F98F3707001CD98F3EC0B747122083D7EA
:10242000476A2313F1001306803E89450A85EFF0C1
:10243000AFC611E5B7471220239C076AA1BF3747F3
:1024400012208357876BFD17231CF76AA1B7828080
:10245000411106C6B74712201307B00C2392E76C50
:102460006D3DEF10B067EFF00FBBB24041018280CD
:10247000411106C65D35EFF0EFB8B24041018280F0
:10248000B767122083D707EED9E7411106C622C4E9
:102490002A841841B707FF01F98FB7060300638943
:1024A000D7029317770063DB0702B747122083D761
:1024B000676C81E73C817BC337023880994763EFC3
:1024C000E700BA871387818CB3C7E7209C438287D4
:1024D000413729A00545F9345C8081EFB2402244A0
:1024E0004101828001457D3CC5BFFD34F5B74937C8
:1024F000E5B71C805C88B747122083D7076B1C8820
:102500001C40939787491CC01306803E8145228555
:10251000EFF08FB8E1B782801C41FBD79789A50700
:1025200013F7F7009D4663E5E604411106C693875D
:10253000418E3347F7201C438287EFF04FF0B240C3
:1025400041018280353FE5BF9939D5BFEFF09F9BB0
:10255000FDB7EFF0CFE9E5B7B747122023AE076A22
:10256000B767122083D78738F9DBEFE00042C1BF9D
:102570008280797106D6EF202021B767122083D799
:102580008738D9CFB767122083D727EEA9E7B76777
:10259000122083D747D01307803EB3D7E7023747CF
:1025A00012200357276B6300F702374712202319C5
:1025B000F76AB747122051472398E76AB7471220B6
:1025C0002392076C71A8374712208356076B514737
:1025D000E39DE6FC71A037671220035747D09306AE
:1025E000803E3357D702B746122083D6266B6380CE
:1025F000E602B74612202399E66AD1073747122030
:102600002318F76AB74712202392076C91A8B746A0
:10261000122003D6066B93864701E31CD6FC89A0E3
:10262000B767122083D747D01307803EB3D7E7029E
:10263000374712200357276B6300F70437471220F0
:102640002319F76AB767122083D787D093F7F70368
:10265000374712202318F76AB74712202392076CD6
:10266000B747122083D7476C8DC71307C00C638D03
:10267000E704B2504561828037671220035787D044
:10268000B746122083D6066B1377F703E398E6FA72
:10269000C1BFB747122083D5276BB747122003D598
:1026A000076BEFF08FADFB4625FCB74712201307F1
:1026B000C00C2392E76C9531B767122083D7873817
:1026C000CDFBEFF03F9775B7B74712202391076C0A
:1026D000EF20E01F51C922D426D24AD04ECE52CC90
:1026E00056CAB7541220938484E901440149B7596A
:1026F0001220374A1220994A89A098403AC003D73D
:10270000C4002316E100D8403AC298443AC4B397B3
:102710008748239AF9E87360043083278A6A85071B
:102720002324FA6A0A85CD3B05093349090863E089
:102730002A030504C1047B23A4027370043083D7E9
:1027400049E933D7874855FB73600430DDB722541D
:1027500092540259F249624AD24A39A02254925400
:102760000259F249624AD24AB747122083D7676CAE
:102770008DE7376712200357873819E39307007DE9
:10278000B746122003D7066C130617002390C66CB9
:1027900093D617006363D7009DEF7536EFF0EFA077
:1027A000374712208357676A8507E99F2313F76A23
:1027B0001307301FE37FF7EAB747122083A647705D
:1027C000376712202312D71023A20770B7471220B1
:1027D0002393076A79BDEFF09F81B74712202390BA
:1027E000076C65BFAA873707001F698FB7060019F6
:1027F0006304D7000145828037571220130747D65C
:102800000145FBD7879014876388F6000505699D0D
:102810000907FB4A85FE82801305C00C82809376EF
:1028200005809396B64893578500BD8B9C8D137792
:10283000F50F188E137505F0699DC167938707E042
:102840006309F504B7571220239E07A20D671307EB
:1028500007F0B9476303E5009C8529676387E606AF
:1028600011676384E6062D676384E6061567638156
:10287000E60631676382E6061967638FE604096737
:10288000130707F0630EE5041D67638EE6049C8D55
:102890008280B757122083D7C7A3FBA517FAB76763
:1028A0001220938787923327F7200357073F130897
:1028B000400633570703988D1886B327F72083D730
:1028C000073FB3F707031C8EB5BFC5079C8D8280F9
:1028D000938717029C8D8280938717039C8D82803B
:1028E000C1479C8D8280938737049C8D828055716F
:1028F00086C7A2C5CAC132892317B10070199305D2
:10290000E10B313F4808EFC0007763190900835796
:10291000E1001544BDCBFD17E99F11A08147035786
:10292000C10B8356E10BBA97900133A6C62003561C
:1029300046F5114463DBC704A6C3B737122093875B
:10294000C7A9B3A7F6209C873E97B3440708B7579B
:10295000122083D7E7A37BAE170013079022638171
:10296000E4207B2A19026316090013075022638CA6
:10297000E41E7B2B19027BA0F60C930700026384F4
:10298000F60C4A846319090C9E442285BE402E44ED
:102990000E4969618280138794DD699F0546E3646F
:1029A000E6FC11449E44D5B7130760046387E60232
:1029B00013078021638FE40213075022E39DE4FA9A
:1029C000FBAB17FAB767122003D727D78357E1006D
:1029D0004A846302F7049E444DBFB7671220938771
:1029E0008792B3A7F4200357E100988F01449E44D7
:1029F00069BF0357E1009967938777CA1544630459
:102A0000F7009E4459B7B74712200547239CE76C4F
:102A100001449E449DBF374712208357476D9397CB
:102A2000B728231AF76CB74712200547239DE76C98
:102A300001449E4499BFB747122083D7876D1D4438
:102A40008DFF9E4499B7B747122083D7676D1D4409
:102A50008DFB9E441DBF01469305E1002685EFB026
:102A600060572A847B2755107B2765109307200425
:102A70006389F40293076022638DF4029307902127
:102A80006380F40C938744F6E99F0D47637FF70A50
:102A90009384F4F5E99C9147014463F8970A9E44B6
:102AA000EDB581450355E100EFB0C0202A849E4476
:102AB000E9BDB747122083D7A76D1D44DDCFB747C7
:102AC000122003D447755DE08357E1007BAC17000B
:102AD0007BA147021307501F6384E7027BAE2704E4
:102AE0009E4465B5B747122005472399E7749E4475
:102AF00069BDB747122011472399E7749E4471B509
:102B0000B767122083D727017BA5170015449E4481
:102B1000ADBDB767122003D74701C167F917630539
:102B2000F70015449E4495B5B74712201307501F70
:102B30002399E7749E4491BDEF30D00D9E44B1B50A
:102B4000EF70F0322A849E4489B50354E1001304E7
:102B500044FB133414003304804015889E4435B57B
:102B600011449E441DB511449E4405B521449E4424
:102B700029BD9E4419BD9E4409BD9E4439B50567D3
:102B8000630AE508AA87814609676306E50A0967BB
:102B9000050701456387E70A41677D176383E70AF5
:102BA000797779173E97699F09466373E60A13F7A9
:102BB00007F0699F0D66130606F06300C70A93D6F7
:102BC000C700AD8A6385061213F607801316B64850
:102BD000BD66630ED610F976FD8E29656389A61051
:102BE000ED76B29613D5D6001D8963020510B16645
:102BF000630FD60E8966938606F0630AD70E9D662C
:102C0000938606306305D70E9D671145631BF70257
:102C100019458280ED9DF9779387078F154563C22B
:102C2000F502896793870771B3A5B700B305B04074
:102C300013F555008280FD15E99D9D47014563E32D
:102C4000B7008280B74712202393076E1545828014
:102C5000139555607D851589828093F7058093973C
:102C6000B74813F8F50F3D67638EE70213F605F0DA
:102C7000699E0967130707F06308E6062967638101
:102C8000E7042D676384E70431676388E7041D6701
:102C90001145639DE70093D68540BD8A938636042F
:102CA000014529A093D68540BD8A0145B73712203A
:102CB000938747B4B3A6F6209C866372F80482809B
:102CC00093D68540BD8AC5060145CDB793D68540CC
:102CD000BD8A938616020145D1BF93D68540BD8A31
:102CE000938616030145D9B7C1460145C1B74111C5
:102CF00006C605463E85E53EB2404101828011454B
:102D00008280AA87137705F0699F8566630AD704D6
:102D10008D666301D506A166630ED504C166FD16F6
:102D2000630AD5049D669386061001456309D702A0
:102D30009D66FD8E1D666387C604F976FD8E296645
:102D40006382C60493F607809396B6483166638B18
:102D5000C6028966938606F011456305D702828014
:102D60009377F50F3385B70013252502133515002A
:102D70000A0582808547B3B5B700B305B04013F5A7
:102D800055008280411106C601463E858D36B2400F
:102D900041018280797106D622D426D24AD04ECE05
:102DA00052CC2A84AE89B284231701002316010075
:102DB000137A0580131ABA4870009305E100EFF00A
:102DC0001FA6373712208357E1001307C7A9B3A7FF
:102DD000E7209C870357C100BA9733C907087BAD2A
:102DE00014049374F40F937604F0E99E856763806E
:102DF000F62C8D676309F434A1676301F43CC16765
:102E0000FD176307F43C9D67938707106387F63EC1
:102E10009D67E18F1D676386E748F9777D8CA96719
:102E20006301F448B167630EFA468967938707F038
:102E30006389F6468144FDAC8967910763EC87049A
:102E40008967636FF400F977A297B3C60708114743
:102E50006363D70E13874190B3C7E6209C438287F4
:102E60008567631AF40CB767122023933701B747BD
:102E7000122083D7277D93995960B3873703096759
:102E800013070771B3C7E70237571220231CF7A2B5
:102E900081444DA4C167FD17631FF40881447BCBB7
:102EA0001928B757122005472397E7B8B7571220BC
:102EB000239607B841A47BAE89009387F9FFE99F69
:102EC000194781446368F726B74712202393376F69
:102ED00095A4B747122083D4C76C99E88547374734
:102EE00012202313F76E374712202316F76C99A48C
:102EF000B747122009472393E76EB747122023965E
:102F0000076C814405ACB7471220239E376D81447E
:102F100015A4B74712202390376F814421ACB747DF
:102F200012202391376F814431A4B7471220239296
:102F3000376F814401A49307800F6300F90E63F09B
:102F400027039307602263E4270D930740228144FF
:102F500063E2271F93078021630EF91C31A09307BA
:102F6000200481446308F91C9357C400AD8BA9C7A2
:102F7000BD676303FA04F977E18F2967638EE7027F
:102F8000ED77D29713D7D7001D8B1DC7B1676305A7
:102F9000FA02937704F0B3C607087977130707108E
:102FA000BA9713D787001377F70E19C79D679387D2
:102FB000073081446390F618137704F0699F8D679A
:102FC000938707F06319F70A93F709809397B74837
:102FD00093F5F90F3D676388E70493F609F0E99EDE
:102FE0000967130707F06386E60829676382E70627
:102FF0002D676384E70631676387E7061D67639E75
:10300000E73C93D78940BD8B9387370405A093078E
:10301000F02681446300F91281BFB7671220239C18
:1030200037B1814401AA93D78940BD8B373712202D
:10303000130747B433A7E7201887914463FCE50ED4
:10304000FB9747C6BE954A85EFC0E0558144DDA099
:1030500093D78940BD8BC507D1BF93D78940BD8B1E
:1030600093871702E1B793D78940BD8B93871703E6
:1030700075BFC14765BFCE854A85EFC0C052AA84DF
:103080007B2A550AA96781446366FA0AB75712205A
:1030900083D7A7FF7BC0170AB747122083D4477591
:1030A00099C0A14441A84A85EF10F00661A04E8363
:1030B00063870932B76712209387879203DE873EC2
:1030C00083DF8703B76712209387871903DF070021
:1030D00083DE670081478146B76812209388889213
:1030E000373812201308C8BE37551220130585F350
:1030F000A94229A863E7EE01B3A6A62033575702D9
:10310000988E8507ED9FBE8663D567023386D4000F
:10311000332706211887332717210357C772B3A512
:10312000A620988DFB4F46FCE3160EFCFBCB1FFC44
:10313000D1B781442685B250225492540259F249A3
:10314000624A45618280B757122083D727A899C762
:10315000B757122083D7E7A37BA21702B7571220D5
:1031600083D707B093F41700A1C493F4074095E800
:10317000B75712200547239CE7F26DBFB7571220BF
:1031800083D407B0858881C8B75712201547239C80
:10319000E7F2814445B7B75712201147239CE7F265
:1031A00051BFB75712200947239CE7F2814459B712
:1031B000B75712200D47239CE7F2ADBFB747122047
:1031C00003D72778B7571220239CE7F281449DB795
:1031D000B757122003D7C7B89307F01F6308F7004B
:1031E000B7571220239C07F28144A9B7B757122082
:1031F0000547239CE7F2814435BF9D4763E3971E53
:1032000093878191B3C7F4209C438287B7671220CC
:1032100003D72724B7571220239CE7F221BFB767B3
:10322000122003A70724B7571220239CE7F28144FA
:1032300011B7B7571220239C07F28144E5BDB75759
:10324000122003D78794B7571220239CE7F28144BA
:10325000D5B5B757122003D72796B7571220239C0E
:10326000E7F28144C1BDB757122003A70796B757AD
:103270001220239CE7F2814475BDB757122003D773
:103280006796B7571220239CE7F2814465B5B7577C
:10329000122003A74796B7571220239CE7F28144D8
:1032A00051BD635E3007B76712209387879203DEB4
:1032B000873E83DF8703B76712209387871903DF71
:1032C000070083DE6700CA870147B768122093882A
:1032D000889237551220130585F31303A039A942AC
:1032E00005483308284139A863E7EE013327A720B2
:1032F00033565602108F338707018507E99F6D9F6C
:10330000635F370133A617211086B325A720908D60
:10331000E39367FEE31A0EFCFBCF1FFCF1B7C16716
:10332000938707E06384F600814429B5635D300B21
:10333000B76712209387879283DF873E83D3870303
:10334000B767122093878719808783D267008147E8
:103350000146376812201308889293084006B73E4A
:103360001220938ECEA9375E1220130E8EF3130F08
:10337000A039294929A863E782003326C621B3D59D
:1033800025030C8E8507ED9F3E8663DE37033307EA
:103390009600332707210357073F33551703337729
:1033A0001703B326D5219486BA96B3A506218C853A
:1033B0003323C6212310B300E396E6FDE39D0FFA05
:1033C000FBC213FC4DBFB74712202397E76CB747EA
:1033D00012202398A76C8144B1BB9144A1BBCE8439
:1033E00091BB814481BB8144B1B3411106C622C463
:1033F00026C22A84AE84EFF08FF811C5B240224471
:103400009244410182800546A6852285EFF09F986F
:10341000F5B7797106D622D4374712200357276FA4
:103420007B1747C19387C194BA979C438297B7474C
:103430001220239A076CB7571220938707FE03D4F4
:10344000A70083D5E70037551220130505F5EF00D7
:10345000505F6300A40C374712208357476D93E7F2
:103460004700231AF76CB7571220938707FE03D73C
:1034700067010507239BE700B747122083D7476DF5
:10348000898B638D0714B757122003D7C7FEC14736
:10349000631FF710B7571220938707FE03D6470024
:1034A00083D70702131716001145631AF710314727
:1034B0006367C7108DCB375712201307E7F52C0031
:1034C0009386F7FFE99E8582B7571220938727F6E8
:1034D000B3C6F6201C87A2072887AA979C8D1107E0
:1034E0008905E319D7FE85462C00B757122003D56E
:1034F00027FEEFE0CF9D3335A0003305A0401589AE
:10350000374712208357476D93E72700231AF76C3C
:103510007DA0B757122083D707FEA1E3B75712202B
:1035200003D7C7FE9307A7FFE99F854663FEF60012
:10353000C147630BF700374712208357476D93E766
:103540000710231AF76C0DBF374712208357476DBA
:1035500093E72700231AF76C05B7B757122083D7D4
:10356000C7FE7BA437021387A7FF699F854663F7D1
:10357000E60241476384E702374712208357476DCD
:1035800093E70710231AF76CC5BD374712208357FE
:10359000476D93E71700231AF76CF9BD37471220E0
:1035A0008357476D93E72700231AF76CF1B5B75798
:1035B0001220938707FE83D54700A8873D3519CD94
:1035C00037471220938701963325F5208356E5FF70
:1035D0008357476DB397D728231AF76CB2502254FC
:1035E00045618280411106C622C426C22A84AE8467
:1035F000EFF02FF111C5B240224492444101828084
:103600000146A6852285EFF0EFF8F5B7B7471220FF
:1036100083D7476D858B85C3B757122083D547FE67
:10362000B14763F0B706374712208357476D93E7DA
:103630000704231AF76CB747122083D7476D13F797
:10364000074005454DEF13F7071009454DEB13F7FC
:1036500047000D454DE713F7070811454DE313F7F4
:103660000704154549EF13F70720194549EB1D4598
:103670001397370163450708FBD7D78213953700A7
:103680008280411106C6B757122003D527FE993F05
:1036900019CD37471220938701963325F52083569D
:1036A000E5FF8357476DB397D728231AF76CB747C1
:1036B000122083D7476D13F70740054515EF13F721
:1036C0000710094515EB13F747000D4515E713F7EC
:1036D0000708114515E313F70704154511EF13F714
:1036E0000720194511EB1D45139737016346070065
:1036F000FBD7D78213953700B24041018280828088
:10370000411106C622C426C211373747122003577B
:10371000276F7B1747C19387C194BA97DC476D9D8C
:103720008297B7541220938444008C84F915E99D44
:1037300037541220130584F9EF00B0309C84130431
:1037400084F933A787209376F50F231ED7FE2181B6
:10375000231FA7FEB2402244924441018280375782
:103760000C4013070700B7560C408547630DD70080
:1037700037570C4013070720B7570C4093870700B3
:10378000998F93B7170099C7B7570C4013070002DA
:1037900023A0E70037570C4013070700B7560C402B
:1037A0008547630DD70037570C4013070720B757DD
:1037B0000C4093870700998F93B7170099C7B757A5
:1037C0000C401307000823A0E70037570C401307ED
:1037D0000700B7560C408547630BD7009386062039
:1037E000B7570C4093870700958F93B7170099C37D
:1037F000FD575CC7828037570C4013070700B75648
:103800000C408547630DD70037570C40130707203E
:10381000B7570C4093870700998F93B7170091C74C
:10382000B7570C40414723A0E70037570C40130718
:103830000700B7560C408547630DD70037570C403B
:1038400013070720B7570C4093870700998F93B74A
:10385000170099C7B7570C401307000823A0E700CB
:1038600037570C4013070700B7560C408547630BCA
:10387000D70093860620B7570C4093870700958F93
:1038800093B7170099C3FD575CC7B7560C40938692
:10389000060037560C408547638DC600B7560C406E
:1038A00093860620B7570C4093870700958F93B7F0
:1038B000170099C385471CC7828037570C401307F0
:1038C0000700B7560C408547630DD70037570C40AB
:1038D00013070720B7570C4093870700998F93B7BA
:1038E000170099C7B7570C401307000423A0E7003F
:1038F00037570C4013070700B7560C408547630D38
:10390000D70037570C4013070720B7570C40938751
:103910000700998F93B7170099C7B7570C40130743
:10392000000223A0E70037570C4013070700B756E3
:103930000C408547630BD70093860620B7570C4091
:1039400093870700958F93B7170099C3FD575CC7FE
:10395000B7560C409386060037560C408547638D5A
:10396000C600B7560C4093860620B7570C40938785
:103970000700958F93B7170099C389471CC78280AA
:10398000411106C6B747122041472393E778B7474E
:1039900012200547239BE76EB747122023AC076E22
:1039A000B7670D4093870788984F1367070898CF2C
:1039B0009935B24041018280B747122083A6876FB4
:1039C0001147636AD714411106C613878193B3C7A1
:1039D000E6209C438287B7670D4093870788984FFE
:1039E0001367070898CF39A2EFF0BFA2B75712208C
:1039F00083D707FE89CFB747122083D7476D918BB6
:103A00008DC7B767122083D707967BA01702B747E9
:103A1000122023AC076EB7670D4093870788984F35
:103A20001367070898CFC13BF1A0D939B7471220D7
:103A3000094723ACE76EB747122083A7C76E3757F5
:103A40001220035747FF63E7E70A3757122003574F
:103A500027FF6371F70AB7670D4093870788D84B34
:103A600013670708D8CBB74712200D4723ACE76E82
:103A7000B757122023930700B757122003D787F9AF
:103A8000B7570C40D8CF153DB747122023A4076E77
:103A900095A0B747122003A7876E050723A4E76EFA
:103AA000B7670D4093870788D44B93E60608D4CBBD
:103AB000B757122083D74700B3C7F720B3C7F72003
:103AC00093965700B697B746122083D6466FFB965B
:103AD000A6C0B3D7D7028507636EF700B747122099
:103AE000114723ACE76EB7570C40D1079C4393F7BF
:103AF000072081E7B24041018280B747122023AC02
:103B0000076EB7670D4093870788984F13670708BC
:103B100098CFD531C5B78280B7571220938707FE5B
:103B200003D7670083D70701637FF7009306170069
:103B3000B75712202393D7FEB7571220938707F564
:103B40003327F720088FB767122083D707967BA10A
:103B50001706B7571220938707FE0947239EE700F1
:103B600021472398E700B757122003D727F5C1470D
:103B70006307F70AB7571220938707FE03D767003A
:103B800083D70701636EF70CB7571220938707FEA0
:103B9000239C070083D787007BA4270AB7471220FE
:103BA000054723ACE76EB7571220239407FE8280A7
:103BB000B757122003D727F5C14763E6E704C1676B
:103BC00093878704B3D7E7489DCFB75712209387D1
:103BD00007FE8946239ED700A1462398D700C147F8
:103BE000E31AF7F8B757122003D767FE9D47E3F3B0
:103BF000E7F8B757122083D7C7F5A5073757122024
:103C00002318F7FE85BFB7571220938707FE054795
:103C1000239EE700130720022398E700A1BFB757B0
:103C2000122003D767FE9D47E3F6E7F4B75712204B
:103C300083D7C7F5A507375712202318F7FE1DBFF6
:103C4000411106C6EFF0BFB1B7471220054723ACBC
:103C5000E76EB7571220239407FEB24041018280DD
:103C60008280011106CE22CC26CA4AC84EC67324D1
:103C70002034F32410347329407C73600430B75728
:103C80000C4083A98701374712200357276F7B1702
:103C900047C19387C194BA97DC4333C5090882971B
:103CA00011C5B757122083D787FE85E7B747122083
:103CB00023A6076E737004307310497C739014341C
:103CC00073102434F2406244D2444249B24905613F
:103CD000828033C509088935D1BFB7571220938731
:103CE0004700B8879C876373F70293061700B7579E
:103CF00012202393D700B7571220938787F93327D1
:103D0000F7201887B7570C40D8CF8280B7570C40A0
:103D10000947D8C7B7471220114723ACE76E828006
:103D2000411106C622C426C24AC073242034F3249B
:103D300010347329407C736004304537B747122034
:103D400023A6076E737004307310497C739014348B
:103D500073102434B24022449244024941018280CB
:103D6000357106CF16CD1ACB1EC922C726C52AC368
:103D70002EC1B2DEB6DCBADABED8C2D6C6D4CAD23A
:103D8000F2D0F6CEFACCFECA82E686E48AE28EE073
:103D900012FE16FC1AFA1EF82AF62EF432F236F04B
:103DA0003AEE3EEC42EA46E872E676E47AE27EE0FB
:103DB00073242034F32410347329407C736004305E
:103DC000B7570C40D1079C4313F717002DE7898B99
:103DD000ADE7737004307310497C73901434731022
:103DE0002434FA40EA425A43CA433A44AA441A45A0
:103DF0008A457656E6565657C6573658A658165927
:103E0000065EF64E664FD64F3660A6601661866136
:103E10007272E2725273C2733275A2751276827632
:103E20007267E2675268C268326EA26E126F826F6A
:103E30000D6173002030353569BFDD3559BF3971EB
:103E400006DE22DCB747122023AC076EB7670D40B1
:103E500093870788984F1367070898CF91679387D0
:103E6000C71037570C401CC302C602C802CA02CC96
:103E700002CE02D002D202D402D6B7E70C4093871A
:103E800007029C43BD8B3EC4A24786073EC4B7676A
:103E90000C409847B7063000558F98C7B7670C405D
:103EA00003A70710131747491317574923A0E71013
:103EB00003A70710558F23A0E71002D202C68D4733
:103EC0003EC802CA02D037550C4013040500A24573
:103ED000B7479C1C938707800147814609661306F4
:103EE0000658B3D5B7021305050097D00F18E78021
:103EF0008000B767122083D767D07BAD27080947BA
:103F00006366F70091CB02CE02CC19A87BCA3700BA
:103F100002CE91473ECC29A089473ECE91473ECC68
:103F20006C00228597D00F18E78060E5EFF0BF8C1A
:103F300037570C4013070700B7560C408547630DF1
:103F4000D70037570C4013070720B7570C4093870B
:103F50000700998F93B7170099C3FD575CC4375773
:103F60000C4013070700B7560C408547630DD70078
:103F700037570C4013070720B7570C4093870700AB
:103F8000998F93B7170099C385471CC4F2506254A8
:103F90002161828002CE85473ECC59B75D7186C6CD
:103FA000A2C4A6C237641220130484928355C43D70
:103FB0004818EF90A041B74712202399076E835706
:103FC00084037BA8171403544103B767122083D5D9
:103FD000E7D04818EF90803FB747122003D7276FEC
:103FE0009C00B327F72083D647FFB74712202398BA
:103FF000D76EA284938701973364F42000847B17E3
:1040000047C19387C194BA979C4722858297B74747
:104010001220239A876EB7570C40D1079C4313D7C1
:104020006700137737087DEBB767122083D70796B1
:104030007BAC170CB767122083D767D037471220A5
:104040000357A76C630EF70C02C802CC02CE02D055
:1040500002D202D402D602D80D473ACA7BAD270C51
:104060007BAE370C89E789473ED091473ECEB7E714
:104070000C40938707029C43BD8B3EC6B247860720
:104080003EC6B7670C4003A707101317474913171D
:10409000574923A0E71003A7071013174729131741
:1040A000572923A0E71037540C40B2459387019756
:1040B000B3E4F4209084B7479C1C938707800147A2
:1040C00081467B1646C6B3D5B7021305040097D0C8
:1040D0000F18E78040E20C081305040097D00F1872
:1040E000E780E0C9EFF02FF1B7671220938787923E
:1040F00083D6E73D374712202315D76C03D7C73D3A
:10410000B74712202394E76CB64026449644616179
:104110008280035461032504699C45BD0D3329B792
:1041200037671220835647D0374712200357876CD2
:10413000E39CE6F0D1BF85473ECE15BF91473ECE0A
:104140003DB7411106C6993DB747122003A7C76E78
:10415000BD679387F7A563FEE700B7471220239D4D
:10416000076CB7471220239C076CB7471220239B8C
:10417000076CEFC0205B11C5EFF09F80B24041019A
:104180008280EFF07F83DDBF411106C6B7670D4027
:1041900093870780984F1317E74898CF984F1317C6
:1041A000F74898CFD843B70600C0558FD8C3D84337
:1041B000B7060040FD16758F1317E729D8C398433B
:1041C00041761306F60F718F98C398431367073033
:1041D00098C3D8471317C7491317D7491317D729B7
:1041E000D8C7D847758F1317F729D8C7985F1377A3
:1041F000F7F798DFD8571317E7481317F748D8D7BA
:10420000D85B13670708D8DBB7670D40938707882B
:10421000984B1377F7F798CBB7450008938505D6E9
:1042200013054008EF00D27809468D451305400874
:10423000EFC09FC913054008EFC09FC5B2404101C0
:1042400082802A879386F5FFE99E85CD8506B3A6F1
:10425000A620C1671385F7FF37061220130606450F
:1042600009078357E7FFA98F93F7F70FB3A7C72075
:104270009C873D8D2181A2073E95699DE312D7FE63
:10428000828041657D158280B75612209386863BD9
:10429000375712201307C752BD47231AF7FE14C31E
:1042A000FD17E99F938686044107FBC8A7FEB75711
:1042B00012209387072FB756122093860602138683
:1042C000870C7947988F2391070094C77D17699FC2
:1042D000D10793868604E397C7FE8280B7670C40B8
:1042E0009847131707491317174998C782807171A8
:1042F00006D782DC82DE02C102C302C502C782CCBD
:1043000082CE82D082D282D482D682D882DA02D081
:1043100002D202D402D602D802DA02DC02DE82C065
:1043200082C282C482C682C882CA02CA02CC231E4A
:10433000010002C602C8994763E4A74422D52A8433
:10434000B747122003D7E76F8D4763E9E706B74702
:10435000122083D7C76FB5CFB747122083D7C76F57
:104360007BAF1708B747122083D7C76F7BA92722D7
:10437000B747122083D7C76F7BCF373C37940440B1
:1043800013040420228597D00F18E780A0757DF9CB
:104390003794044013040420228597D00F18E78037
:1043A00000777DD98545379504401305052097D0C2
:1043B0000F18E78020BD6316052201A0B747122021
:1043C000239E076EB7471220239F076E0D452A5480
:1043D0004DAE37251008130515E097D00F18E7806C
:1043E000009637251008130515C097D00F18E780E1
:1043F0000095B74712200547239EE76EB1BF26D32D
:104400004AD14ECF52CDB7670C40984713170729B2
:104410001317172998C7B7E70C4023A60700B7E77B
:104420000C4037F7FF5F050798D7B7670C4003A725
:1044300007101317074923A0E71003A70710131746
:10444000072923A0E710230C010602C3A30C0106D1
:10445000230D0106A30D0106230E01060549A30E37
:104460002107230F0106A30F0106230001082301E2
:10447000010802C5A3000108A306010823060108DC
:10448000A30C0104230C0104230D010423142107B0
:1044900082D282CE82D0A30D2105230A2107A30A4E
:1044A00021078949CED6CED8114A230041032311D2
:1044B0000102A3002103C1472312F10202DCE147FC
:1044C0002316F102A144A3009104A302010482C8AF
:1044D00002DE014597D00F18E780602F9307F500A3
:1044E0008E072317F102230191042303010482CADA
:1044F000014597D00F18E780802DAA84014597D0F9
:104500000F18E780C02CB387A400ED078E07231493
:10451000F10282C602DA014597D00F18E780202BFE
:10452000AA84014597D00F18E780602AAA94014514
:1045300097D00F18E780A02993841403AA94939727
:1045400034002313F1029947A301F1042308410326
:1045500082C4014597D00F18E7806027AA840145DF
:1045600097D00F18E780A026AA94014597D00F187E
:10457000E780E02593847402AA949397340023156E
:10458000F102A9472300F10423022105B7471220B5
:10459000239E376F9A540A59FA496A4AE1B37B1746
:1045A00064C0938781BDBA979C87054781C7FD1773
:1045B00033C70708231AE1007B1464C0938781BDC9
:1045C000A29703D74700230BE100BC87A30BF100A0
:1045D0008947230CF100B74712200D47239EE76E51
:1045E00041BBAC18379504401305052097D00F1830
:1045F000E780203B11E101A0AC083795044013058A
:10460000052097D00F18E78080D311E101A04C0856
:10461000379504401305052097D00F18E78080E0F8
:1046200011E101A00C10379504401305052097D027
:104630000F18E78040B611E101A0B70700A03EC601
:10464000B7070001E1178D833EC87000814537959B
:1046500004401305052097D00F18E78080A711E1CB
:1046600001A0B7052000FD1537950440130505206E
:1046700097D00F18E78060AD11E101A00146814598
:10468000379504401305052097D00F18E780809ACE
:1046900011E101A08145379504401305052097D00D
:1046A0000F18E780208E11E101A0C165FD15379537
:1046B00004401305052097D00F18E780A01B11E1D7
:1046C00001A08545379504401305052097D00F18A4
:1046D000E780201611E101A08145379504401305BC
:1046E000052097D00F18E780401C11E101A0054676
:1046F000B70508008505379504401305052097D0B8
:104700000F18E78060E911E101A00546B705080030
:104710008505379504401305052097D00F18E780CD
:1047200040DF11E101A0054685453795044013059A
:10473000052097D00F18E78020EA11E101A0B70506
:104740001020938525541305600DEF007226130584
:10475000600DEFC0EFF3EFF03FB3B7471220239E99
:10476000076EB7471220239F076EB747122023A674
:104770000770B747122023A4077009452A5411A0D7
:104780001145BA504D618280B747122083A78771C7
:1047900099E301458280411106C6B747122023AC38
:1047A00007708145379504401305052097C00F1801
:1047B000E780407D0145B240410182809041937580
:1047C000F501374712208327C770B397A728232600
:1047D000F7703315A0283747122083274771B3F7A6
:1047E000A740232AF770B747122003A70771598DF6
:1047F00023A8A770B75712209387C752B756122025
:104800009386C6573708F1FF7D18370500807D1560
:104810000E060D82B70800E021A0C1076387D70A02
:1048200003D747FFE31BB7FE03A30700032743009B
:10483000131747492322E30003A30700032743007C
:1048400033770701131737292322E30003A3070057
:1048500003274300131777492322E30003A307002C
:1048600003270300698F2320E30003A30700032726
:104870004300131757492322E30003A3070003272C
:10488000030033771701518F2320E3009843A303DC
:1048900007009843A302070003A3070003270300B0
:1048A0001317D7492320E30003A30700032743007E
:1048B000131767492322E30003A30700032703001C
:1048C0001317E7292320E30089BF828082804111EA
:1048D00006C6379504401305052097D00F18E780CA
:1048E00060ECAA87374712202320A77013771500A2
:1048F000054501E7B2404101828013F727007DDBC7
:1049000013F7470065DB13F787006DD793C70701DF
:104910007BD54782C5B73747122083576775938683
:104920001700231BD7743757122013070759B3A753
:10493000E720888F82802A86B7270C40938707005C
:1049400083D7270113974701634C0710B7270C4003
:104950009387070083D747001397370163470708FA
:1049600037270C40130707008357E70093F707C06A
:1049700093E707052317F70049E23757122013077B
:10498000C7578356470093852600E99DB7270C40FB
:10499000938707002395B700835567002398B700D6
:1049A000035787002398E70095C68147014737558D
:1049B00012201305C557B7250C40938505003327F2
:1049C000A7200357A7002398E5008507ED9F3E87A2
:1049D000E3C7D7FEB7270C401D67130707E293878D
:1049E00007002399E70032858280B757122083A7FA
:1049F000C7570565FBA637F682807B2C1602B727C2
:104A00000C409387070009472395E700375712208A
:104A10001307C757835667002398D70003578700AB
:104A20002398E7001967130707622399E7000145F8
:104A30008280B757122083A7C757FBC237FCB757EE
:104A4000122003D70758B7270C40938707002395F8
:104A5000E7001D67130707C22399E700014582801D
:104A60001565130555558280411106C6B7571220AA
:104A700083A7C757B9EB22C426C2AA8413044006F1
:104A800005C105454D3D05C99307F4FF33C407082B
:104A900013970701418375F72285224492441DA094
:104AA0000145513D35E5B7571220054723AEE7567E
:104AB0002244924401A8B7571220094723AEE75673
:104AC00022449244B240410182807BAB37000145D1
:104AD000FBCA57FEB757122023AE07560545DDB770
:104AE00022C4130440060545B93501CD9307F4FFF0
:104AF00033C4070813970701418375F722852244C1
:104B0000D1B7B7571220114723AEE75622445DBFF5
:104B10002685224492447DB70547B7571220239833
:104B2000E7563C85FD17E99F636CF712411106C6F5
:104B300022C42A84B747122083D7E77291CBB747A4
:104B4000122003D7477393073006014563F3E70448
:104B5000B7471220239A0772B7471220239707728C
:104B60001C84C1078607E99F375712201307C757D0
:104B700093D687002313D70093F7F70F2314F7007A
:104B80003C8486072312F7000545F93D7B27150075
:104B90000145B240224441018280B747122003D828
:104BA000C7720508334808082396077338847D17B1
:104BB0006D9F63400704B75612209386C657B346CD
:104BC000D720130627003326862001A81C8E7D17C8
:104BD0006D9FF1167916634E070083D7A600A207D2
:104BE00083D5C600AE97E99FFB2218FE0C86E380B2
:104BF000F5FE7B281802635A0704B747122083A7E3
:104C00008774F517B337F0008907B746122003D72A
:104C1000A6720507699F2395E672635BF70001455D
:104C20008DBFB747122005472395E772014595B719
:104C3000B747122023960772B7571220938707575A
:104C40002390070023910700A9B7B74712202396A6
:104C50000772B747122005472397E772014515BF32
:104C600011458280B75712200547239AE7561C85C5
:104C70003885B386E700F99B890763C6D71A4111C7
:104C800006C622C42A847D17699F8547114563E9BA
:104C9000E70AB747122083D7877291CBB747122014
:104CA00003D7477393073006014563FBE708B7470F
:104CB0001220239A0772B747122023940772B7472E
:104CC000122083A74772A5E3B74712200547239018
:104CD000E772375712201307C75783574400A18341
:104CE0002315F700834744002316F7001C84C107EF
:104CF0008607E99F93D687002313D70093F7F70F12
:104D00002314F70089472312F7000145B13BAA8716
:104D100001457BC717023C847BA81702B7471220C6
:104D2000054723A2E772B747122083A747727BA3E8
:104D30001702B747122083A7477201457BA42706B5
:104D4000B240224441018280B7471220094723A282
:104D5000E772D1BF375712201307C7578357640034
:104D6000A1832315F700834764002316F7001C84F2
:104D7000C5078607E99F93D687002313D70093F7CB
:104D8000F70F2314F70089472312F7000145E9398B
:104D9000AA870145FBC617FAB7471220094723A285
:104DA000E77241BF18843745122093070574988F26
:104DB00038842391E70013050574B93B7B4715063A
:104DC0003C84FD17ED9F63C6070213872700060783
:104DD000B7451220938505743306B700B306E40087
:104DE000108694866317D600FD17ED9F7917E3D5DB
:104DF00007FE63CD0700B747122005472394E772EB
:104E0000B747122023A2077201451DBFB7571220D2
:104E1000938707572392070023930700B747122071
:104E200023A2077231BF11458280014511BFB747E8
:104E3000122023A40774B747122003D747757B2796
:104E4000C704B746122083D726733746122003566D
:104E50000673B297E99F2399F672B746122083D65C
:104E6000C67463E3D708759B699F7B241702B74715
:104E7000122083D747757BAE4704B7471220239A89
:104E80000774B7471220239907748280239A077406
:104E90008280411106C6EF109003B747122083D7D6
:104EA00047757BAD4700B7471220239A0774B74771
:104EB000122023990774B24041018280B767122003
:104EC0009387879205472395E76E79572396E76E78
:104ED000D9BFB76712209387879205472395E76E5E
:104EE00079572396E76E51BF828037471220835748
:104EF00047738507231AF772B757122083D70757CE
:104F000099CFB757122083D727578507E99F1307F3
:104F1000A00F636EF704375712202319F756B757BF
:104F2000122083D7475799CFB757122083D7675797
:104F30008507E99F1307401F6365F7043757122061
:104F4000231BF756B747122083D74775B9CFB757FA
:104F5000122083D7A7578507E99F09671307F7F33F
:104F6000636BF70237571220231DF7568280B7571D
:104F7000122023990756B747122009472394E77850
:104F800079BFB7571220239B0756B7471220054712
:104F90002394E77845BFB7571220239D0756B7479C
:104FA00012200D472394E7788280B7571220239D63
:104FB00007568280B7670D4093870780985F799B7B
:104FC00098DF985F759B98DFD85313673700D8D365
:104FD000D8531367C700D8D3D857799B759B1367ED
:104FE0001700D8D7D8576D9B5D9B13674700D8D75C
:104FF0008280B7270C409387070011672399E70049
:1050000037670C408326071093F6F6EF93F6F6DF2A
:105010002320D7108326071093E606302320D710CD
:10502000239C0700130760092393E7002394E700FC
:10503000130740022391E700116713070702239922
:10504000E7001967130707042390E70409671307AC
:1050500007042391E7048280B7270C409387070059
:1050600083D7470193960701C182638C060E4111D5
:1050700006C633C707087B2767007B273708B2407F
:1050800041018280B757122083A7C7577BA6170418
:105090007BA72706FBC547FEB757122003D5075845
:1050A00015C581470147B7250C4093850500375644
:1050B00012201306C65783D6C5003327C7202315F1
:1050C000D7008507ED9F3E87E3C7A7FEB75712209D
:1050D000154723AEE75665B722C4130440060945B9
:1050E000EFF07F8519C99307F4FF33C407081397BE
:1050F000070141836DF7224459B7224449B7B75796
:10510000122023AE0756A5BFB7270C409387070090
:1051100083D74700FBD717827BA11702B75712200E
:1051200083A7C7577BA92702FBCB17F4B7571220D9
:10513000154723AEE756753D99B7B7270C409387BF
:10514000070003D727011317B7282399E70009475A
:105150002392E7002DB7B75712200D4723AEE7562D
:1051600039BF8280411106C622C41305000F97D0B3
:105170000F18E780809C37640D40130404885C4856
:1051800093E717005CC81305000F97D00F18E7804E
:10519000C09A5C4893E727005CC81305000F97D0BE
:1051A0000F18E78080991C4C93E727001CCC13054F
:1051B000000F97D00F18E7804098B2402244410179
:1051C0008280411106C622C437640D40130404884E
:1051D0001C4C93E717001CCC1305000F97D00F1839
:1051E000E780A0955C4893E727005CC81305000F93
:1051F00097D00F18E78060945C4893E717005CC86D
:105200001305000F97D00F18E7802093B240224477
:1052100041018280411106C622C426C2B7670D40F3
:1052200093870780D85B799BD8DB9304003237647F
:105230000D40130404881C4C93E727001CCC130575
:10524000000F97D00F18E780408F5C4893E7270046
:105250005CC81305000F97D00F18E780008E938766
:10526000F4FFB3C4070813970701418369F7B767D1
:105270000D4093870788984F1367270098CF130531
:10528000000F97D00F18E780408BB7670D409387CA
:105290000780D85B13671700D8DB1305000F97D082
:1052A0000F18E7808089B2402244924441018280F5
:1052B000411106C622C426C237640D40130404807F
:1052C0001C5CF99B1CDC1C5CF59B1CDC5C5093E7B4
:1052D00037005CD05C5093E7C7005CD05C54F99B0E
:1052E000F59B5CD45C54ED9BDD9B5CD45C5893E7F0
:1052F00017005CD85C5893E727005CD8B7640D4072
:10530000938404889C48F99B9CC89C48F59B9CC846
:1053100037A50E001305056097D00F18E780E081D0
:105320004D355C5893E717005CD8DC4893E71700CD
:10533000DCC85C58F99B5CD89C48858B054795C7B1
:10534000B7670D4093870780D85B13671700D8DBDA
:1053500037670D4013070788144F93E6160014CFE4
:10536000D45BF99AD4DB184B058B7B271700B2402E
:105370002244924441018280713DED339935C5BF8D
:105380009307103663F9A700938781DE3325F52054
:105390000355C5938280B71712207B15A5C093874C
:1053A000878CAA9703D587008280011106CEB74764
:1053B000122003D767759307300663F2E702B747F9
:1053C000122013074006239BE774B757122083A7C8
:1053D000879A91C7B747122011472394E778AD39D0
:1053E000B747122083D747759DEBB747122083D765
:1053F0002775EDCB37471220231AF774138737FF31
:105400003337E0000A07B74612202399E672374780
:1054100012209306203A2316D7747BA1B70AB74708
:10542000122083A7877463960712B747122003D709
:10543000477585467B22C702B747122083D727735B
:1054400093F6E7FF8906E99E374612200356C67495
:10545000B3D6C60A9D8EE99EB74712202398D7720D
:10546000B747122003D62773B747122093870774D4
:10547000908F2391D7007B24A70A7B28470A814776
:105480000145635DD00EB7351220938585781308EA
:105490002036E99F3307F600699F3327B720188726
:1054A000631E07098507ED9F3E85E3C4D7FEB74716
:1054B000122013072036239FE77069A0B7471220F8
:1054C00003D50775753DB74712202399A772B747D3
:1054D000122003D5E7746D350505B74712202396D2
:1054E000A77435BFB747122083D76775C9C7374739
:1054F0001220B146231AD774FD17E99F37471220AF
:10550000231BF7743757122013070759B3A7E72057
:105510008887BD35B74712202399A77209B7B747C7
:105520001220094723A4E7742DA08567938707817C
:10553000B297374712202310F77491B7B74712205C
:10554000239FE770638EA602B7471220054723A466
:10555000E774B747122083A787747BA61702B74763
:10556000122083A787747BAE2702B747122083A738
:1055700087747BA43726F240056182800145D9B744
:10558000EFF0FF8AF9B73745122013050574EFF0E5
:10559000AFD8FB4615FCB7471220094723A4E77490
:1055A0007DBFB747122083D747757BAD47041307EC
:1055B000501F6389E704B7471220239E0770B7473F
:1055C000122003D707736307071C22CC26CA4AC8D8
:1055D0004EC652C456C25AC08147B73A1220938A67
:1055E0008A78B74412203769122013098992B74983
:1055F00012209389097437441220374A1220130A63
:105600008A7355A81307501F6388E702B747122013
:1056100083D7277337451220130785731C8FB7472D
:10562000122083D707732311F70013058573EFF05A
:10563000AFCEFB4215F441B7B747122083D727738B
:10564000056713070781BA97E99FE9B77B2D170014
:105650007B43370285455A85EF108011332B2B2170
:105660002310AB0009A881455A85EF106010332B39
:105670002B212310AB008357C47103D7E471332768
:1056800027211887B3A647212392E600B3A6372126
:1056900083D646006387E600374712208D462324D1
:1056A000D7748507E99F231EF470374712200357EC
:1056B000077363FAE70C37471220035727733E97A7
:1056C000699F33275721035B0700239F6471374786
:1056D0001220035747757B2FA704A946E3F8E6F687
:1056E0007B21D7049306501FE317D7F81307103612
:1056F000E36367F913078BDE699FC946E3FDE6F6AE
:105700003767122013078792332BEB20374712207D
:1057100013078773B3A7E72083D747002310FB0045
:1057200099BF332B2B21B3A7372183D747002310F1
:10573000FB0091B793078BCFE99F1D476378F70074
:105740009307CBCEE99F3D476368F700B757122018
:1057500083D7E7997BA817009307BBC8E99F054744
:105760006368F700B74712200D4723A4E77421B7F9
:105770005A85EF00907BB767122093878792B327F3
:10578000FB20888FC5B76244D2444249B249224ABD
:10579000924A024BB747122083A787747BCC37020B
:1057A000B747122083D62773B74712209387877392
:1057B000948F2391E700B747122083D74775FBC624
:1057C00047DA856793870781BE96B7471220239CE7
:1057D000D77261BBEFF0AFE549BB37451220130527
:1057E0008573EFF02FC8FB4815D8EFF04FE461B395
:1057F000B757122083D707AF898B91E7375712200D
:105800000327879A19E7375712200327879A7B4780
:1058100027003747122085462318D77637471220AE
:105820000357077715CB37571220035707B0058B5F
:1058300011C737471220A5462313D77837471220C0
:10584000032747777B2717027B20270411E7B747F9
:10585000122083D7277591C38280411106C6EF00BD
:105860005044B7471220054723AAE776B2404101CA
:105870008280B747122083D74775F9FFB7471220B8
:10588000094723AAE7768280E1DBB747122023AAE3
:105890000776B7471220239807768280B7471220F1
:1058A00003D627786DC6B747122083D74776638023
:1058B000C70E930706FBE99F2547637AF70CB76786
:1058C0001220138787928356272A2310D72A8356BC
:1058D000472A2311D72A2312C72A9306E7FE938764
:1058E000879283D5A72C239FB72CF917E39BD7FE6C
:1058F0008357672B2315F72C7917E31BD7FEB76760
:10590000122093878792375712208326078C3307FC
:10591000D0403367D70A2393E72A3757122083569C
:10592000478A2394D72A375712200357278B23956A
:10593000E72A37671220032707242396E72A3757D9
:105940001220035787942397E72A375712200357CB
:1059500007B02398E72A3757122013070772835599
:10596000A7002399B72A03578700239AE72A3757B6
:1059700012200357E787239BE72AB757122083D7C4
:10598000C78A7BA727009307C0036303F6008280C2
:10599000B757122083D7879DE3FBF6FE37671220A7
:1059A0002318F7BC8280B747122083D7877585E319
:1059B000B757122083A7079693F7072089CB37574D
:1059C0001220835747B09397C7282312F7B0B757D1
:1059D000122083A70796FBD7978293F7F70F3747D5
:1059E0001220231CF774B757122083D767B87BA304
:1059F00057008280B747122083C70778B98B7BABEB
:105A0000670037571220835747B09397C728231250
:105A1000F7B08280B757122083D707B0858BF1FB90
:105A2000CDB7B747122083D727787BAE970055476D
:105A30006382E7023747122003470778398B014515
:105A40007B2167028280B747122003D50777133581
:105A500015008280B747122003D5877813351500CB
:105A600082803747122003574778E30DF7FC3757FA
:105A700012200355C78A1D8D3335A0008280B74799
:105A8000122083D727785D4701456380E70A130713
:105A9000C003638CE70837571220035547B00567EA
:105AA000798D05C5B747122023940776B747122092
:105AB00083C70778B98B05457BA92706B7571220FE
:105AC00003D507B0759D058982803747122003579B
:105AD0008776B766122083D6E6BB6378D704F917BA
:105AE000E99F894663E4F604B767122083D627BC92
:105AF0009547B3F6F60A374612208357A6768507F0
:105B0000E99F2315F676FB9626C363E0D7020507C7
:105B1000B74712202394E77637571220835747B0B0
:105B20009397B7482312F7B005458280B7671220D4
:105B300083D627BCC9B7411106C6E535AA870545F6
:105B400081C7B240410182801D3F3335A000D5BFDF
:105B5000411106C6893DB747122083A7C77685073E
:105B6000379704001307073E6363F7063747122091
:105B70002326F776B747122083D72778E5C3375710
:105B80001220231107A83747122003470778398BC3
:105B90007B28270437471220232607763747122011
:105BA000032787777B2B270E894663E5E60655CBCF
:105BB000B747122083D72775D5E3B7471220094787
:105BC00023ACE776B74712202394077841A8B7475C
:105BD000122023A60776B74712202394077659BFD1
:105BE000B756122003D706B0799B2390E6B0B7557D
:105BF000122003D7C5AF37551220835685AF79766B
:105C00001306F67FF18E231CD5AE137787E5239E0E
:105C1000E5AE49B77B443704B756122003D746AFE9
:105C2000799B239AE6AE3747122003576778630FB4
:105C3000F708375712200357C78A630EF708B7478C
:105C40001220239107783747122083470778C59B96
:105C50002300F778B747122023AC0776B240410102
:105C60008280B747122083D72775EDFBB7471220F4
:105C70002D472399E774B74712201307001523987F
:105C8000E774B74712201307F0162397E774B74756
:105C90001220054723ACE776D1B7713D61D1B747F4
:105CA000122023950776B757122083D7C78A89CB4E
:105CB00037571220835747AF93E71700231AF7AEE1
:105CC000B74712200D4723ACE77649BF374712206C
:105CD00023130778B9BFB75712202396078A85B7D1
:105CE0009307000463E3A70E011106CE22CC2A8499
:105CF000938741C0B347F5209C4382870545F24016
:105D0000624405618280B767122083D5A7C048002E
:105D1000EF70C06BB54763EA87001C083324F4209A
:105D20000355E4FD0505699DD9BF1C083324F42003
:105D30000355C4FD0505699DD9B7B767122083D502
:105D4000C7C04800EF708068D54763EA87001C0829
:105D50003324F4200355C4FC0505699D4DB71C0888
:105D60003324F420035584FC0505699D49BFB767BA
:105D7000122083D5E7C04800EF7040651C0833242B
:105D8000F4200355E4FB0505699D95BFB767122014
:105D900083D507C14800EF7060631C083324F420EA
:105DA000035504FA0505699D99BFB767122083D58D
:105DB00007C14800EF708061035581000505699DAA
:105DC0003DBF0D452DBF11451DBF05458280397171
:105DD00006DE56D262CC01452137B7571220138711
:105DE000878A03DC878A3C87336CFC00E28A630580
:105DF0000C0A22DC26DA4AD84ED652D45AD05ECECD
:105E000066CA6AC86EC6814AAA8B138981D00144CA
:105E1000014CBD49375B1220930C8B8A376D1220E1
:105E2000130DCD18594A29A883D72C00130704FF56
:105E3000B3D7E740E99F31A8050409096304440585
:105E4000B3440408E3E299FE83578B8AB3D78740B3
:105E5000E99F858BF5D3835D09006E855135E37D20
:105E600075FD93D72400B3A7A72183DA07008D8897
